{
	"code/contracts/NewContract.sol": {
		"NewContract": {
			"abi": [
				{
					"inputs": [
						{
							"internalType": "string",
							"name": "_secret",
							"type": "string"
						}
					],
					"stateMutability": "nonpayable",
					"type": "constructor"
				},
				{
					"inputs": [],
					"name": "getSecret",
					"outputs": [
						{
							"internalType": "string",
							"name": "",
							"type": "string"
						}
					],
					"stateMutability": "view",
					"type": "function"
				}
			],
			"devdoc": {
				"kind": "dev",
				"methods": {},
				"version": 1
			},
			"evm": {
				"assembly": "    /* \"code/contracts/NewContract.sol\":550:960  contract NewContract is Ownable {... */\n  mstore(0x40, 0x80)\n    /* \"code/contracts/NewContract.sol\":627:808  constructor(string memory _secret )  {... */\n  callvalue\n  dup1\n  iszero\n  tag_1\n  jumpi\n  0x00\n  dup1\n  revert\ntag_1:\n  pop\n  mload(0x40)\n  sub(codesize, bytecodeSize)\n  dup1\n  bytecodeSize\n  dup4\n  codecopy\n  dup2\n  dup2\n  add\n  0x40\n  mstore\n  dup2\n  add\n  swap1\n  tag_2\n  swap2\n  swap1\n  tag_3\n  jump\t// in\ntag_2:\n    /* \"code/contracts/NewContract.sol\":276:286  msg.sender */\n  caller\n    /* \"code/contracts/NewContract.sol\":268:273  owner */\n  0x00\n  dup1\n    /* \"code/contracts/NewContract.sol\":268:286  owner = msg.sender */\n  0x0100\n  exp\n  dup2\n  sload\n  dup2\n  0xffffffffffffffffffffffffffffffffffffffff\n  mul\n  not\n  and\n  swap1\n  dup4\n  0xffffffffffffffffffffffffffffffffffffffff\n  and\n  mul\n  or\n  swap1\n  sstore\n  pop\n    /* \"code/contracts/NewContract.sol\":678:702  SecretVault _secretVault */\n  0x00\n    /* \"code/contracts/NewContract.sol\":721:728  _secret */\n  dup2\n    /* \"code/contracts/NewContract.sol\":705:729  new SecretVault(_secret) */\n  mload(0x40)\n  tag_8\n  swap1\n  tag_9\n  jump\t// in\ntag_8:\n  tag_10\n  swap2\n  swap1\n  tag_11\n  jump\t// in\ntag_10:\n  mload(0x40)\n  dup1\n  swap2\n  sub\n  swap1\n  0x00\n  create\n  dup1\n  iszero\n  dup1\n  iszero\n  tag_12\n  jumpi\n  returndatasize\n  0x00\n  dup1\n  returndatacopy\n  revert(0x00, returndatasize)\ntag_12:\n  pop\n    /* \"code/contracts/NewContract.sol\":678:729  SecretVault _secretVault = new SecretVault(_secret) */\n  swap1\n  pop\n    /* \"code/contracts/NewContract.sol\":765:777  _secretVault */\n  dup1\n    /* \"code/contracts/NewContract.sol\":743:754  secretVault */\n  0x01\n  0x00\n    /* \"code/contracts/NewContract.sol\":743:778  secretVault = address(_secretVault) */\n  0x0100\n  exp\n  dup2\n  sload\n  dup2\n  0xffffffffffffffffffffffffffffffffffffffff\n  mul\n  not\n  and\n  swap1\n  dup4\n  0xffffffffffffffffffffffffffffffffffffffff\n  and\n  mul\n  or\n  swap1\n  sstore\n  pop\n    /* \"code/contracts/NewContract.sol\":664:808  {... */\n  pop\n    /* \"code/contracts/NewContract.sol\":627:808  constructor(string memory _secret )  {... */\n  pop\n    /* \"code/contracts/NewContract.sol\":550:960  contract NewContract is Ownable {... */\n  jump(tag_13)\ntag_9:\n  dataSize(sub_1)\n  dup1\n  dataOffset(sub_1)\n  dup4\n  codecopy\n  add\n  swap1\n  jump\t// out\n    /* \"#utility.yul\":7:82   */\ntag_14:\n    /* \"#utility.yul\":40:46   */\n  0x00\n    /* \"#utility.yul\":73:75   */\n  0x40\n    /* \"#utility.yul\":67:76   */\n  mload\n    /* \"#utility.yul\":57:76   */\n  swap1\n  pop\n    /* \"#utility.yul\":7:82   */\n  swap1\n  jump\t// out\n    /* \"#utility.yul\":88:205   */\ntag_15:\n    /* \"#utility.yul\":197:198   */\n  0x00\n    /* \"#utility.yul\":194:195   */\n  dup1\n    /* \"#utility.yul\":187:199   */\n  revert\n    /* \"#utility.yul\":211:328   */\ntag_16:\n    /* \"#utility.yul\":320:321   */\n  0x00\n    /* \"#utility.yul\":317:318   */\n  dup1\n    /* \"#utility.yul\":310:322   */\n  revert\n    /* \"#utility.yul\":334:451   */\ntag_17:\n    /* \"#utility.yul\":443:444   */\n  0x00\n    /* \"#utility.yul\":440:441   */\n  dup1\n    /* \"#utility.yul\":433:445   */\n  revert\n    /* \"#utility.yul\":457:574   */\ntag_18:\n    /* \"#utility.yul\":566:567   */\n  0x00\n    /* \"#utility.yul\":563:564   */\n  dup1\n    /* \"#utility.yul\":556:568   */\n  revert\n    /* \"#utility.yul\":580:682   */\ntag_19:\n    /* \"#utility.yul\":621:627   */\n  0x00\n    /* \"#utility.yul\":672:674   */\n  0x1f\n    /* \"#utility.yul\":668:675   */\n  not\n    /* \"#utility.yul\":663:665   */\n  0x1f\n    /* \"#utility.yul\":656:661   */\n  dup4\n    /* \"#utility.yul\":652:666   */\n  add\n    /* \"#utility.yul\":648:676   */\n  and\n    /* \"#utility.yul\":638:676   */\n  swap1\n  pop\n    /* \"#utility.yul\":580:682   */\n  swap2\n  swap1\n  pop\n  jump\t// out\n    /* \"#utility.yul\":688:868   */\ntag_20:\n    /* \"#utility.yul\":736:813   */\n  0x4e487b7100000000000000000000000000000000000000000000000000000000\n    /* \"#utility.yul\":733:734   */\n  0x00\n    /* \"#utility.yul\":726:814   */\n  mstore\n    /* \"#utility.yul\":833:837   */\n  0x41\n    /* \"#utility.yul\":830:831   */\n  0x04\n    /* \"#utility.yul\":823:838   */\n  mstore\n    /* \"#utility.yul\":857:861   */\n  0x24\n    /* \"#utility.yul\":854:855   */\n  0x00\n    /* \"#utility.yul\":847:862   */\n  revert\n    /* \"#utility.yul\":874:1155   */\ntag_21:\n    /* \"#utility.yul\":957:984   */\n  tag_39\n    /* \"#utility.yul\":979:983   */\n  dup3\n    /* \"#utility.yul\":957:984   */\n  tag_19\n  jump\t// in\ntag_39:\n    /* \"#utility.yul\":949:955   */\n  dup2\n    /* \"#utility.yul\":945:985   */\n  add\n    /* \"#utility.yul\":1087:1093   */\n  dup2\n    /* \"#utility.yul\":1075:1085   */\n  dup2\n    /* \"#utility.yul\":1072:1094   */\n  lt\n    /* \"#utility.yul\":1051:1069   */\n  0xffffffffffffffff\n    /* \"#utility.yul\":1039:1049   */\n  dup3\n    /* \"#utility.yul\":1036:1070   */\n  gt\n    /* \"#utility.yul\":1033:1095   */\n  or\n    /* \"#utility.yul\":1030:1118   */\n  iszero\n  tag_40\n  jumpi\n    /* \"#utility.yul\":1098:1116   */\n  tag_41\n  tag_20\n  jump\t// in\ntag_41:\n    /* \"#utility.yul\":1030:1118   */\ntag_40:\n    /* \"#utility.yul\":1138:1148   */\n  dup1\n    /* \"#utility.yul\":1134:1136   */\n  0x40\n    /* \"#utility.yul\":1127:1149   */\n  mstore\n    /* \"#utility.yul\":917:1155   */\n  pop\n    /* \"#utility.yul\":874:1155   */\n  pop\n  pop\n  jump\t// out\n    /* \"#utility.yul\":1161:1290   */\ntag_22:\n    /* \"#utility.yul\":1195:1201   */\n  0x00\n    /* \"#utility.yul\":1222:1242   */\n  tag_43\n  tag_14\n  jump\t// in\ntag_43:\n    /* \"#utility.yul\":1212:1242   */\n  swap1\n  pop\n    /* \"#utility.yul\":1251:1284   */\n  tag_44\n    /* \"#utility.yul\":1279:1283   */\n  dup3\n    /* \"#utility.yul\":1271:1277   */\n  dup3\n    /* \"#utility.yul\":1251:1284   */\n  tag_21\n  jump\t// in\ntag_44:\n    /* \"#utility.yul\":1161:1290   */\n  swap2\n  swap1\n  pop\n  jump\t// out\n    /* \"#utility.yul\":1296:1604   */\ntag_23:\n    /* \"#utility.yul\":1358:1362   */\n  0x00\n    /* \"#utility.yul\":1448:1466   */\n  0xffffffffffffffff\n    /* \"#utility.yul\":1440:1446   */\n  dup3\n    /* \"#utility.yul\":1437:1467   */\n  gt\n    /* \"#utility.yul\":1434:1490   */\n  iszero\n  tag_46\n  jumpi\n    /* \"#utility.yul\":1470:1488   */\n  tag_47\n  tag_20\n  jump\t// in\ntag_47:\n    /* \"#utility.yul\":1434:1490   */\ntag_46:\n    /* \"#utility.yul\":1508:1537   */\n  tag_48\n    /* \"#utility.yul\":1530:1536   */\n  dup3\n    /* \"#utility.yul\":1508:1537   */\n  tag_19\n  jump\t// in\ntag_48:\n    /* \"#utility.yul\":1500:1537   */\n  swap1\n  pop\n    /* \"#utility.yul\":1592:1596   */\n  0x20\n    /* \"#utility.yul\":1586:1590   */\n  dup2\n    /* \"#utility.yul\":1582:1597   */\n  add\n    /* \"#utility.yul\":1574:1597   */\n  swap1\n  pop\n    /* \"#utility.yul\":1296:1604   */\n  swap2\n  swap1\n  pop\n  jump\t// out\n    /* \"#utility.yul\":1610:1749   */\ntag_24:\n    /* \"#utility.yul\":1699:1705   */\n  dup3\n    /* \"#utility.yul\":1694:1697   */\n  dup2\n    /* \"#utility.yul\":1689:1692   */\n  dup4\n    /* \"#utility.yul\":1683:1706   */\n  mcopy\n    /* \"#utility.yul\":1740:1741   */\n  0x00\n    /* \"#utility.yul\":1731:1737   */\n  dup4\n    /* \"#utility.yul\":1726:1729   */\n  dup4\n    /* \"#utility.yul\":1722:1738   */\n  add\n    /* \"#utility.yul\":1715:1742   */\n  mstore\n    /* \"#utility.yul\":1610:1749   */\n  pop\n  pop\n  pop\n  jump\t// out\n    /* \"#utility.yul\":1755:2189   */\ntag_25:\n    /* \"#utility.yul\":1844:1849   */\n  0x00\n    /* \"#utility.yul\":1869:1935   */\n  tag_51\n    /* \"#utility.yul\":1885:1934   */\n  tag_52\n    /* \"#utility.yul\":1927:1933   */\n  dup5\n    /* \"#utility.yul\":1885:1934   */\n  tag_23\n  jump\t// in\ntag_52:\n    /* \"#utility.yul\":1869:1935   */\n  tag_22\n  jump\t// in\ntag_51:\n    /* \"#utility.yul\":1860:1935   */\n  swap1\n  pop\n    /* \"#utility.yul\":1958:1964   */\n  dup3\n    /* \"#utility.yul\":1951:1956   */\n  dup2\n    /* \"#utility.yul\":1944:1965   */\n  mstore\n    /* \"#utility.yul\":1996:2000   */\n  0x20\n    /* \"#utility.yul\":1989:1994   */\n  dup2\n    /* \"#utility.yul\":1985:2001   */\n  add\n    /* \"#utility.yul\":2034:2037   */\n  dup5\n    /* \"#utility.yul\":2025:2031   */\n  dup5\n    /* \"#utility.yul\":2020:2023   */\n  dup5\n    /* \"#utility.yul\":2016:2032   */\n  add\n    /* \"#utility.yul\":2013:2038   */\n  gt\n    /* \"#utility.yul\":2010:2122   */\n  iszero\n  tag_53\n  jumpi\n    /* \"#utility.yul\":2041:2120   */\n  tag_54\n  tag_18\n  jump\t// in\ntag_54:\n    /* \"#utility.yul\":2010:2122   */\ntag_53:\n    /* \"#utility.yul\":2131:2183   */\n  tag_55\n    /* \"#utility.yul\":2176:2182   */\n  dup5\n    /* \"#utility.yul\":2171:2174   */\n  dup3\n    /* \"#utility.yul\":2166:2169   */\n  dup6\n    /* \"#utility.yul\":2131:2183   */\n  tag_24\n  jump\t// in\ntag_55:\n    /* \"#utility.yul\":1850:2189   */\n  pop\n    /* \"#utility.yul\":1755:2189   */\n  swap4\n  swap3\n  pop\n  pop\n  pop\n  jump\t// out\n    /* \"#utility.yul\":2209:2564   */\ntag_26:\n    /* \"#utility.yul\":2276:2281   */\n  0x00\n    /* \"#utility.yul\":2325:2328   */\n  dup3\n    /* \"#utility.yul\":2318:2322   */\n  0x1f\n    /* \"#utility.yul\":2310:2316   */\n  dup4\n    /* \"#utility.yul\":2306:2323   */\n  add\n    /* \"#utility.yul\":2302:2329   */\n  slt\n    /* \"#utility.yul\":2292:2414   */\n  tag_57\n  jumpi\n    /* \"#utility.yul\":2333:2412   */\n  tag_58\n  tag_17\n  jump\t// in\ntag_58:\n    /* \"#utility.yul\":2292:2414   */\ntag_57:\n    /* \"#utility.yul\":2443:2449   */\n  dup2\n    /* \"#utility.yul\":2437:2450   */\n  mload\n    /* \"#utility.yul\":2468:2558   */\n  tag_59\n    /* \"#utility.yul\":2554:2557   */\n  dup5\n    /* \"#utility.yul\":2546:2552   */\n  dup3\n    /* \"#utility.yul\":2539:2543   */\n  0x20\n    /* \"#utility.yul\":2531:2537   */\n  dup7\n    /* \"#utility.yul\":2527:2544   */\n  add\n    /* \"#utility.yul\":2468:2558   */\n  tag_25\n  jump\t// in\ntag_59:\n    /* \"#utility.yul\":2459:2558   */\n  swap2\n  pop\n    /* \"#utility.yul\":2282:2564   */\n  pop\n    /* \"#utility.yul\":2209:2564   */\n  swap3\n  swap2\n  pop\n  pop\n  jump\t// out\n    /* \"#utility.yul\":2570:3094   */\ntag_3:\n    /* \"#utility.yul\":2650:2656   */\n  0x00\n    /* \"#utility.yul\":2699:2701   */\n  0x20\n    /* \"#utility.yul\":2687:2696   */\n  dup3\n    /* \"#utility.yul\":2678:2685   */\n  dup5\n    /* \"#utility.yul\":2674:2697   */\n  sub\n    /* \"#utility.yul\":2670:2702   */\n  slt\n    /* \"#utility.yul\":2667:2786   */\n  iszero\n  tag_61\n  jumpi\n    /* \"#utility.yul\":2705:2784   */\n  tag_62\n  tag_15\n  jump\t// in\ntag_62:\n    /* \"#utility.yul\":2667:2786   */\ntag_61:\n    /* \"#utility.yul\":2846:2847   */\n  0x00\n    /* \"#utility.yul\":2835:2844   */\n  dup3\n    /* \"#utility.yul\":2831:2848   */\n  add\n    /* \"#utility.yul\":2825:2849   */\n  mload\n    /* \"#utility.yul\":2876:2894   */\n  0xffffffffffffffff\n    /* \"#utility.yul\":2868:2874   */\n  dup2\n    /* \"#utility.yul\":2865:2895   */\n  gt\n    /* \"#utility.yul\":2862:2979   */\n  iszero\n  tag_63\n  jumpi\n    /* \"#utility.yul\":2898:2977   */\n  tag_64\n  tag_16\n  jump\t// in\ntag_64:\n    /* \"#utility.yul\":2862:2979   */\ntag_63:\n    /* \"#utility.yul\":3003:3077   */\n  tag_65\n    /* \"#utility.yul\":3069:3076   */\n  dup5\n    /* \"#utility.yul\":3060:3066   */\n  dup3\n    /* \"#utility.yul\":3049:3058   */\n  dup6\n    /* \"#utility.yul\":3045:3067   */\n  add\n    /* \"#utility.yul\":3003:3077   */\n  tag_26\n  jump\t// in\ntag_65:\n    /* \"#utility.yul\":2993:3077   */\n  swap2\n  pop\n    /* \"#utility.yul\":2796:3087   */\n  pop\n    /* \"#utility.yul\":2570:3094   */\n  swap3\n  swap2\n  pop\n  pop\n  jump\t// out\n    /* \"#utility.yul\":3100:3199   */\ntag_27:\n    /* \"#utility.yul\":3152:3158   */\n  0x00\n    /* \"#utility.yul\":3186:3191   */\n  dup2\n    /* \"#utility.yul\":3180:3192   */\n  mload\n    /* \"#utility.yul\":3170:3192   */\n  swap1\n  pop\n    /* \"#utility.yul\":3100:3199   */\n  swap2\n  swap1\n  pop\n  jump\t// out\n    /* \"#utility.yul\":3205:3374   */\ntag_28:\n    /* \"#utility.yul\":3289:3300   */\n  0x00\n    /* \"#utility.yul\":3323:3329   */\n  dup3\n    /* \"#utility.yul\":3318:3321   */\n  dup3\n    /* \"#utility.yul\":3311:3330   */\n  mstore\n    /* \"#utility.yul\":3363:3367   */\n  0x20\n    /* \"#utility.yul\":3358:3361   */\n  dup3\n    /* \"#utility.yul\":3354:3368   */\n  add\n    /* \"#utility.yul\":3339:3368   */\n  swap1\n  pop\n    /* \"#utility.yul\":3205:3374   */\n  swap3\n  swap2\n  pop\n  pop\n  jump\t// out\n    /* \"#utility.yul\":3380:3757   */\ntag_29:\n    /* \"#utility.yul\":3468:3471   */\n  0x00\n    /* \"#utility.yul\":3496:3535   */\n  tag_69\n    /* \"#utility.yul\":3529:3534   */\n  dup3\n    /* \"#utility.yul\":3496:3535   */\n  tag_27\n  jump\t// in\ntag_69:\n    /* \"#utility.yul\":3551:3622   */\n  tag_70\n    /* \"#utility.yul\":3615:3621   */\n  dup2\n    /* \"#utility.yul\":3610:3613   */\n  dup6\n    /* \"#utility.yul\":3551:3622   */\n  tag_28\n  jump\t// in\ntag_70:\n    /* \"#utility.yul\":3544:3622   */\n  swap4\n  pop\n    /* \"#utility.yul\":3631:3696   */\n  tag_71\n    /* \"#utility.yul\":3689:3695   */\n  dup2\n    /* \"#utility.yul\":3684:3687   */\n  dup6\n    /* \"#utility.yul\":3677:3681   */\n  0x20\n    /* \"#utility.yul\":3670:3675   */\n  dup7\n    /* \"#utility.yul\":3666:3682   */\n  add\n    /* \"#utility.yul\":3631:3696   */\n  tag_24\n  jump\t// in\ntag_71:\n    /* \"#utility.yul\":3721:3750   */\n  tag_72\n    /* \"#utility.yul\":3743:3749   */\n  dup2\n    /* \"#utility.yul\":3721:3750   */\n  tag_19\n  jump\t// in\ntag_72:\n    /* \"#utility.yul\":3716:3719   */\n  dup5\n    /* \"#utility.yul\":3712:3751   */\n  add\n    /* \"#utility.yul\":3705:3751   */\n  swap2\n  pop\n    /* \"#utility.yul\":3472:3757   */\n  pop\n    /* \"#utility.yul\":3380:3757   */\n  swap3\n  swap2\n  pop\n  pop\n  jump\t// out\n    /* \"#utility.yul\":3763:4076   */\ntag_11:\n    /* \"#utility.yul\":3876:3880   */\n  0x00\n    /* \"#utility.yul\":3914:3916   */\n  0x20\n    /* \"#utility.yul\":3903:3912   */\n  dup3\n    /* \"#utility.yul\":3899:3917   */\n  add\n    /* \"#utility.yul\":3891:3917   */\n  swap1\n  pop\n    /* \"#utility.yul\":3963:3972   */\n  dup2\n    /* \"#utility.yul\":3957:3961   */\n  dup2\n    /* \"#utility.yul\":3953:3973   */\n  sub\n    /* \"#utility.yul\":3949:3950   */\n  0x00\n    /* \"#utility.yul\":3938:3947   */\n  dup4\n    /* \"#utility.yul\":3934:3951   */\n  add\n    /* \"#utility.yul\":3927:3974   */\n  mstore\n    /* \"#utility.yul\":3991:4069   */\n  tag_74\n    /* \"#utility.yul\":4064:4068   */\n  dup2\n    /* \"#utility.yul\":4055:4061   */\n  dup5\n    /* \"#utility.yul\":3991:4069   */\n  tag_29\n  jump\t// in\ntag_74:\n    /* \"#utility.yul\":3983:4069   */\n  swap1\n  pop\n    /* \"#utility.yul\":3763:4076   */\n  swap3\n  swap2\n  pop\n  pop\n  jump\t// out\n    /* \"code/contracts/NewContract.sol\":550:960  contract NewContract is Ownable {... */\ntag_13:\n  dataSize(sub_0)\n  dup1\n  dataOffset(sub_0)\n  0x00\n  codecopy\n  0x00\n  return\nstop\n\nsub_0: assembly {\n        /* \"code/contracts/NewContract.sol\":550:960  contract NewContract is Ownable {... */\n      mstore(0x40, 0x80)\n      callvalue\n      dup1\n      iszero\n      tag_1\n      jumpi\n      0x00\n      dup1\n      revert\n    tag_1:\n      pop\n      jumpi(tag_2, lt(calldatasize, 0x04))\n      shr(0xe0, calldataload(0x00))\n      dup1\n      0x5b9fdc30\n      eq\n      tag_3\n      jumpi\n    tag_2:\n      0x00\n      dup1\n      revert\n        /* \"code/contracts/NewContract.sol\":819:957  function getSecret() public view onlyOwner returns (string memory){... */\n    tag_3:\n      tag_4\n      tag_5\n      jump\t// in\n    tag_4:\n      mload(0x40)\n      tag_6\n      swap2\n      swap1\n      tag_7\n      jump\t// in\n    tag_6:\n      mload(0x40)\n      dup1\n      swap2\n      sub\n      swap1\n      return\n    tag_5:\n        /* \"code/contracts/NewContract.sol\":871:884  string memory */\n      0x60\n        /* \"code/contracts/NewContract.sol\":165:170  owner */\n      0x00\n      dup1\n      sload\n      swap1\n      0x0100\n      exp\n      swap1\n      div\n      0xffffffffffffffffffffffffffffffffffffffff\n      and\n        /* \"code/contracts/NewContract.sol\":151:170  msg.sender == owner */\n      0xffffffffffffffffffffffffffffffffffffffff\n      and\n        /* \"code/contracts/NewContract.sol\":151:161  msg.sender */\n      caller\n        /* \"code/contracts/NewContract.sol\":151:170  msg.sender == owner */\n      0xffffffffffffffffffffffffffffffffffffffff\n      and\n      eq\n        /* \"code/contracts/NewContract.sol\":143:203  require(msg.sender == owner,\"Must be owner of the Contract\") */\n      tag_9\n      jumpi\n      mload(0x40)\n      0x08c379a000000000000000000000000000000000000000000000000000000000\n      dup2\n      mstore\n      0x04\n      add\n      tag_10\n      swap1\n      tag_11\n      jump\t// in\n    tag_10:\n      mload(0x40)\n      dup1\n      swap2\n      sub\n      swap1\n      revert\n    tag_9:\n        /* \"code/contracts/NewContract.sol\":922:933  secretVault */\n      0x01\n      0x00\n      swap1\n      sload\n      swap1\n      0x0100\n      exp\n      swap1\n      div\n      0xffffffffffffffffffffffffffffffffffffffff\n      and\n        /* \"code/contracts/NewContract.sol\":910:944  SecretVault(secretVault).getSecret */\n      0xffffffffffffffffffffffffffffffffffffffff\n      and\n      0x5b9fdc30\n        /* \"code/contracts/NewContract.sol\":910:946  SecretVault(secretVault).getSecret() */\n      mload(0x40)\n      dup2\n      0xffffffff\n      and\n      0xe0\n      shl\n      dup2\n      mstore\n      0x04\n      add\n      0x00\n      mload(0x40)\n      dup1\n      dup4\n      sub\n      dup2\n      dup7\n      gas\n      staticcall\n      iszero\n      dup1\n      iszero\n      tag_14\n      jumpi\n      returndatasize\n      0x00\n      dup1\n      returndatacopy\n      revert(0x00, returndatasize)\n    tag_14:\n      pop\n      pop\n      pop\n      pop\n      mload(0x40)\n      returndatasize\n      0x00\n      dup3\n      returndatacopy\n      returndatasize\n      not(0x1f)\n      0x1f\n      dup3\n      add\n      and\n      dup3\n      add\n      dup1\n      0x40\n      mstore\n      pop\n      dup2\n      add\n      swap1\n      tag_15\n      swap2\n      swap1\n      tag_16\n      jump\t// in\n    tag_15:\n        /* \"code/contracts/NewContract.sol\":903:946  return SecretVault(secretVault).getSecret() */\n      swap1\n      pop\n        /* \"code/contracts/NewContract.sol\":819:957  function getSecret() public view onlyOwner returns (string memory){... */\n      swap1\n      jump\t// out\n        /* \"#utility.yul\":7:106   */\n    tag_17:\n        /* \"#utility.yul\":59:65   */\n      0x00\n        /* \"#utility.yul\":93:98   */\n      dup2\n        /* \"#utility.yul\":87:99   */\n      mload\n        /* \"#utility.yul\":77:99   */\n      swap1\n      pop\n        /* \"#utility.yul\":7:106   */\n      swap2\n      swap1\n      pop\n      jump\t// out\n        /* \"#utility.yul\":112:281   */\n    tag_18:\n        /* \"#utility.yul\":196:207   */\n      0x00\n        /* \"#utility.yul\":230:236   */\n      dup3\n        /* \"#utility.yul\":225:228   */\n      dup3\n        /* \"#utility.yul\":218:237   */\n      mstore\n        /* \"#utility.yul\":270:274   */\n      0x20\n        /* \"#utility.yul\":265:268   */\n      dup3\n        /* \"#utility.yul\":261:275   */\n      add\n        /* \"#utility.yul\":246:275   */\n      swap1\n      pop\n        /* \"#utility.yul\":112:281   */\n      swap3\n      swap2\n      pop\n      pop\n      jump\t// out\n        /* \"#utility.yul\":287:426   */\n    tag_19:\n        /* \"#utility.yul\":376:382   */\n      dup3\n        /* \"#utility.yul\":371:374   */\n      dup2\n        /* \"#utility.yul\":366:369   */\n      dup4\n        /* \"#utility.yul\":360:383   */\n      mcopy\n        /* \"#utility.yul\":417:418   */\n      0x00\n        /* \"#utility.yul\":408:414   */\n      dup4\n        /* \"#utility.yul\":403:406   */\n      dup4\n        /* \"#utility.yul\":399:415   */\n      add\n        /* \"#utility.yul\":392:419   */\n      mstore\n        /* \"#utility.yul\":287:426   */\n      pop\n      pop\n      pop\n      jump\t// out\n        /* \"#utility.yul\":432:534   */\n    tag_20:\n        /* \"#utility.yul\":473:479   */\n      0x00\n        /* \"#utility.yul\":524:526   */\n      0x1f\n        /* \"#utility.yul\":520:527   */\n      not\n        /* \"#utility.yul\":515:517   */\n      0x1f\n        /* \"#utility.yul\":508:513   */\n      dup4\n        /* \"#utility.yul\":504:518   */\n      add\n        /* \"#utility.yul\":500:528   */\n      and\n        /* \"#utility.yul\":490:528   */\n      swap1\n      pop\n        /* \"#utility.yul\":432:534   */\n      swap2\n      swap1\n      pop\n      jump\t// out\n        /* \"#utility.yul\":540:917   */\n    tag_21:\n        /* \"#utility.yul\":628:631   */\n      0x00\n        /* \"#utility.yul\":656:695   */\n      tag_41\n        /* \"#utility.yul\":689:694   */\n      dup3\n        /* \"#utility.yul\":656:695   */\n      tag_17\n      jump\t// in\n    tag_41:\n        /* \"#utility.yul\":711:782   */\n      tag_42\n        /* \"#utility.yul\":775:781   */\n      dup2\n        /* \"#utility.yul\":770:773   */\n      dup6\n        /* \"#utility.yul\":711:782   */\n      tag_18\n      jump\t// in\n    tag_42:\n        /* \"#utility.yul\":704:782   */\n      swap4\n      pop\n        /* \"#utility.yul\":791:856   */\n      tag_43\n        /* \"#utility.yul\":849:855   */\n      dup2\n        /* \"#utility.yul\":844:847   */\n      dup6\n        /* \"#utility.yul\":837:841   */\n      0x20\n        /* \"#utility.yul\":830:835   */\n      dup7\n        /* \"#utility.yul\":826:842   */\n      add\n        /* \"#utility.yul\":791:856   */\n      tag_19\n      jump\t// in\n    tag_43:\n        /* \"#utility.yul\":881:910   */\n      tag_44\n        /* \"#utility.yul\":903:909   */\n      dup2\n        /* \"#utility.yul\":881:910   */\n      tag_20\n      jump\t// in\n    tag_44:\n        /* \"#utility.yul\":876:879   */\n      dup5\n        /* \"#utility.yul\":872:911   */\n      add\n        /* \"#utility.yul\":865:911   */\n      swap2\n      pop\n        /* \"#utility.yul\":632:917   */\n      pop\n        /* \"#utility.yul\":540:917   */\n      swap3\n      swap2\n      pop\n      pop\n      jump\t// out\n        /* \"#utility.yul\":923:1236   */\n    tag_7:\n        /* \"#utility.yul\":1036:1040   */\n      0x00\n        /* \"#utility.yul\":1074:1076   */\n      0x20\n        /* \"#utility.yul\":1063:1072   */\n      dup3\n        /* \"#utility.yul\":1059:1077   */\n      add\n        /* \"#utility.yul\":1051:1077   */\n      swap1\n      pop\n        /* \"#utility.yul\":1123:1132   */\n      dup2\n        /* \"#utility.yul\":1117:1121   */\n      dup2\n        /* \"#utility.yul\":1113:1133   */\n      sub\n        /* \"#utility.yul\":1109:1110   */\n      0x00\n        /* \"#utility.yul\":1098:1107   */\n      dup4\n        /* \"#utility.yul\":1094:1111   */\n      add\n        /* \"#utility.yul\":1087:1134   */\n      mstore\n        /* \"#utility.yul\":1151:1229   */\n      tag_46\n        /* \"#utility.yul\":1224:1228   */\n      dup2\n        /* \"#utility.yul\":1215:1221   */\n      dup5\n        /* \"#utility.yul\":1151:1229   */\n      tag_21\n      jump\t// in\n    tag_46:\n        /* \"#utility.yul\":1143:1229   */\n      swap1\n      pop\n        /* \"#utility.yul\":923:1236   */\n      swap3\n      swap2\n      pop\n      pop\n      jump\t// out\n        /* \"#utility.yul\":1242:1421   */\n    tag_22:\n        /* \"#utility.yul\":1382:1413   */\n      0x4d757374206265206f776e6572206f662074686520436f6e7472616374000000\n        /* \"#utility.yul\":1378:1379   */\n      0x00\n        /* \"#utility.yul\":1370:1376   */\n      dup3\n        /* \"#utility.yul\":1366:1380   */\n      add\n        /* \"#utility.yul\":1359:1414   */\n      mstore\n        /* \"#utility.yul\":1242:1421   */\n      pop\n      jump\t// out\n        /* \"#utility.yul\":1427:1793   */\n    tag_23:\n        /* \"#utility.yul\":1569:1572   */\n      0x00\n        /* \"#utility.yul\":1590:1657   */\n      tag_49\n        /* \"#utility.yul\":1654:1656   */\n      0x1d\n        /* \"#utility.yul\":1649:1652   */\n      dup4\n        /* \"#utility.yul\":1590:1657   */\n      tag_18\n      jump\t// in\n    tag_49:\n        /* \"#utility.yul\":1583:1657   */\n      swap2\n      pop\n        /* \"#utility.yul\":1666:1759   */\n      tag_50\n        /* \"#utility.yul\":1755:1758   */\n      dup3\n        /* \"#utility.yul\":1666:1759   */\n      tag_22\n      jump\t// in\n    tag_50:\n        /* \"#utility.yul\":1784:1786   */\n      0x20\n        /* \"#utility.yul\":1779:1782   */\n      dup3\n        /* \"#utility.yul\":1775:1787   */\n      add\n        /* \"#utility.yul\":1768:1787   */\n      swap1\n      pop\n        /* \"#utility.yul\":1427:1793   */\n      swap2\n      swap1\n      pop\n      jump\t// out\n        /* \"#utility.yul\":1799:2218   */\n    tag_11:\n        /* \"#utility.yul\":1965:1969   */\n      0x00\n        /* \"#utility.yul\":2003:2005   */\n      0x20\n        /* \"#utility.yul\":1992:2001   */\n      dup3\n        /* \"#utility.yul\":1988:2006   */\n      add\n        /* \"#utility.yul\":1980:2006   */\n      swap1\n      pop\n        /* \"#utility.yul\":2052:2061   */\n      dup2\n        /* \"#utility.yul\":2046:2050   */\n      dup2\n        /* \"#utility.yul\":2042:2062   */\n      sub\n        /* \"#utility.yul\":2038:2039   */\n      0x00\n        /* \"#utility.yul\":2027:2036   */\n      dup4\n        /* \"#utility.yul\":2023:2040   */\n      add\n        /* \"#utility.yul\":2016:2063   */\n      mstore\n        /* \"#utility.yul\":2080:2211   */\n      tag_52\n        /* \"#utility.yul\":2206:2210   */\n      dup2\n        /* \"#utility.yul\":2080:2211   */\n      tag_23\n      jump\t// in\n    tag_52:\n        /* \"#utility.yul\":2072:2211   */\n      swap1\n      pop\n        /* \"#utility.yul\":1799:2218   */\n      swap2\n      swap1\n      pop\n      jump\t// out\n        /* \"#utility.yul\":2224:2299   */\n    tag_24:\n        /* \"#utility.yul\":2257:2263   */\n      0x00\n        /* \"#utility.yul\":2290:2292   */\n      0x40\n        /* \"#utility.yul\":2284:2293   */\n      mload\n        /* \"#utility.yul\":2274:2293   */\n      swap1\n      pop\n        /* \"#utility.yul\":2224:2299   */\n      swap1\n      jump\t// out\n        /* \"#utility.yul\":2305:2422   */\n    tag_25:\n        /* \"#utility.yul\":2414:2415   */\n      0x00\n        /* \"#utility.yul\":2411:2412   */\n      dup1\n        /* \"#utility.yul\":2404:2416   */\n      revert\n        /* \"#utility.yul\":2428:2545   */\n    tag_26:\n        /* \"#utility.yul\":2537:2538   */\n      0x00\n        /* \"#utility.yul\":2534:2535   */\n      dup1\n        /* \"#utility.yul\":2527:2539   */\n      revert\n        /* \"#utility.yul\":2551:2668   */\n    tag_27:\n        /* \"#utility.yul\":2660:2661   */\n      0x00\n        /* \"#utility.yul\":2657:2658   */\n      dup1\n        /* \"#utility.yul\":2650:2662   */\n      revert\n        /* \"#utility.yul\":2674:2791   */\n    tag_28:\n        /* \"#utility.yul\":2783:2784   */\n      0x00\n        /* \"#utility.yul\":2780:2781   */\n      dup1\n        /* \"#utility.yul\":2773:2785   */\n      revert\n        /* \"#utility.yul\":2797:2977   */\n    tag_29:\n        /* \"#utility.yul\":2845:2922   */\n      0x4e487b7100000000000000000000000000000000000000000000000000000000\n        /* \"#utility.yul\":2842:2843   */\n      0x00\n        /* \"#utility.yul\":2835:2923   */\n      mstore\n        /* \"#utility.yul\":2942:2946   */\n      0x41\n        /* \"#utility.yul\":2939:2940   */\n      0x04\n        /* \"#utility.yul\":2932:2947   */\n      mstore\n        /* \"#utility.yul\":2966:2970   */\n      0x24\n        /* \"#utility.yul\":2963:2964   */\n      0x00\n        /* \"#utility.yul\":2956:2971   */\n      revert\n        /* \"#utility.yul\":2983:3264   */\n    tag_30:\n        /* \"#utility.yul\":3066:3093   */\n      tag_60\n        /* \"#utility.yul\":3088:3092   */\n      dup3\n        /* \"#utility.yul\":3066:3093   */\n      tag_20\n      jump\t// in\n    tag_60:\n        /* \"#utility.yul\":3058:3064   */\n      dup2\n        /* \"#utility.yul\":3054:3094   */\n      add\n        /* \"#utility.yul\":3196:3202   */\n      dup2\n        /* \"#utility.yul\":3184:3194   */\n      dup2\n        /* \"#utility.yul\":3181:3203   */\n      lt\n        /* \"#utility.yul\":3160:3178   */\n      0xffffffffffffffff\n        /* \"#utility.yul\":3148:3158   */\n      dup3\n        /* \"#utility.yul\":3145:3179   */\n      gt\n        /* \"#utility.yul\":3142:3204   */\n      or\n        /* \"#utility.yul\":3139:3227   */\n      iszero\n      tag_61\n      jumpi\n        /* \"#utility.yul\":3207:3225   */\n      tag_62\n      tag_29\n      jump\t// in\n    tag_62:\n        /* \"#utility.yul\":3139:3227   */\n    tag_61:\n        /* \"#utility.yul\":3247:3257   */\n      dup1\n        /* \"#utility.yul\":3243:3245   */\n      0x40\n        /* \"#utility.yul\":3236:3258   */\n      mstore\n        /* \"#utility.yul\":3026:3264   */\n      pop\n        /* \"#utility.yul\":2983:3264   */\n      pop\n      pop\n      jump\t// out\n        /* \"#utility.yul\":3270:3399   */\n    tag_31:\n        /* \"#utility.yul\":3304:3310   */\n      0x00\n        /* \"#utility.yul\":3331:3351   */\n      tag_64\n      tag_24\n      jump\t// in\n    tag_64:\n        /* \"#utility.yul\":3321:3351   */\n      swap1\n      pop\n        /* \"#utility.yul\":3360:3393   */\n      tag_65\n        /* \"#utility.yul\":3388:3392   */\n      dup3\n        /* \"#utility.yul\":3380:3386   */\n      dup3\n        /* \"#utility.yul\":3360:3393   */\n      tag_30\n      jump\t// in\n    tag_65:\n        /* \"#utility.yul\":3270:3399   */\n      swap2\n      swap1\n      pop\n      jump\t// out\n        /* \"#utility.yul\":3405:3713   */\n    tag_32:\n        /* \"#utility.yul\":3467:3471   */\n      0x00\n        /* \"#utility.yul\":3557:3575   */\n      0xffffffffffffffff\n        /* \"#utility.yul\":3549:3555   */\n      dup3\n        /* \"#utility.yul\":3546:3576   */\n      gt\n        /* \"#utility.yul\":3543:3599   */\n      iszero\n      tag_67\n      jumpi\n        /* \"#utility.yul\":3579:3597   */\n      tag_68\n      tag_29\n      jump\t// in\n    tag_68:\n        /* \"#utility.yul\":3543:3599   */\n    tag_67:\n        /* \"#utility.yul\":3617:3646   */\n      tag_69\n        /* \"#utility.yul\":3639:3645   */\n      dup3\n        /* \"#utility.yul\":3617:3646   */\n      tag_20\n      jump\t// in\n    tag_69:\n        /* \"#utility.yul\":3609:3646   */\n      swap1\n      pop\n        /* \"#utility.yul\":3701:3705   */\n      0x20\n        /* \"#utility.yul\":3695:3699   */\n      dup2\n        /* \"#utility.yul\":3691:3706   */\n      add\n        /* \"#utility.yul\":3683:3706   */\n      swap1\n      pop\n        /* \"#utility.yul\":3405:3713   */\n      swap2\n      swap1\n      pop\n      jump\t// out\n        /* \"#utility.yul\":3719:4153   */\n    tag_33:\n        /* \"#utility.yul\":3808:3813   */\n      0x00\n        /* \"#utility.yul\":3833:3899   */\n      tag_71\n        /* \"#utility.yul\":3849:3898   */\n      tag_72\n        /* \"#utility.yul\":3891:3897   */\n      dup5\n        /* \"#utility.yul\":3849:3898   */\n      tag_32\n      jump\t// in\n    tag_72:\n        /* \"#utility.yul\":3833:3899   */\n      tag_31\n      jump\t// in\n    tag_71:\n        /* \"#utility.yul\":3824:3899   */\n      swap1\n      pop\n        /* \"#utility.yul\":3922:3928   */\n      dup3\n        /* \"#utility.yul\":3915:3920   */\n      dup2\n        /* \"#utility.yul\":3908:3929   */\n      mstore\n        /* \"#utility.yul\":3960:3964   */\n      0x20\n        /* \"#utility.yul\":3953:3958   */\n      dup2\n        /* \"#utility.yul\":3949:3965   */\n      add\n        /* \"#utility.yul\":3998:4001   */\n      dup5\n        /* \"#utility.yul\":3989:3995   */\n      dup5\n        /* \"#utility.yul\":3984:3987   */\n      dup5\n        /* \"#utility.yul\":3980:3996   */\n      add\n        /* \"#utility.yul\":3977:4002   */\n      gt\n        /* \"#utility.yul\":3974:4086   */\n      iszero\n      tag_73\n      jumpi\n        /* \"#utility.yul\":4005:4084   */\n      tag_74\n      tag_28\n      jump\t// in\n    tag_74:\n        /* \"#utility.yul\":3974:4086   */\n    tag_73:\n        /* \"#utility.yul\":4095:4147   */\n      tag_75\n        /* \"#utility.yul\":4140:4146   */\n      dup5\n        /* \"#utility.yul\":4135:4138   */\n      dup3\n        /* \"#utility.yul\":4130:4133   */\n      dup6\n        /* \"#utility.yul\":4095:4147   */\n      tag_19\n      jump\t// in\n    tag_75:\n        /* \"#utility.yul\":3814:4153   */\n      pop\n        /* \"#utility.yul\":3719:4153   */\n      swap4\n      swap3\n      pop\n      pop\n      pop\n      jump\t// out\n        /* \"#utility.yul\":4173:4528   */\n    tag_34:\n        /* \"#utility.yul\":4240:4245   */\n      0x00\n        /* \"#utility.yul\":4289:4292   */\n      dup3\n        /* \"#utility.yul\":4282:4286   */\n      0x1f\n        /* \"#utility.yul\":4274:4280   */\n      dup4\n        /* \"#utility.yul\":4270:4287   */\n      add\n        /* \"#utility.yul\":4266:4293   */\n      slt\n        /* \"#utility.yul\":4256:4378   */\n      tag_77\n      jumpi\n        /* \"#utility.yul\":4297:4376   */\n      tag_78\n      tag_27\n      jump\t// in\n    tag_78:\n        /* \"#utility.yul\":4256:4378   */\n    tag_77:\n        /* \"#utility.yul\":4407:4413   */\n      dup2\n        /* \"#utility.yul\":4401:4414   */\n      mload\n        /* \"#utility.yul\":4432:4522   */\n      tag_79\n        /* \"#utility.yul\":4518:4521   */\n      dup5\n        /* \"#utility.yul\":4510:4516   */\n      dup3\n        /* \"#utility.yul\":4503:4507   */\n      0x20\n        /* \"#utility.yul\":4495:4501   */\n      dup7\n        /* \"#utility.yul\":4491:4508   */\n      add\n        /* \"#utility.yul\":4432:4522   */\n      tag_33\n      jump\t// in\n    tag_79:\n        /* \"#utility.yul\":4423:4522   */\n      swap2\n      pop\n        /* \"#utility.yul\":4246:4528   */\n      pop\n        /* \"#utility.yul\":4173:4528   */\n      swap3\n      swap2\n      pop\n      pop\n      jump\t// out\n        /* \"#utility.yul\":4534:5058   */\n    tag_16:\n        /* \"#utility.yul\":4614:4620   */\n      0x00\n        /* \"#utility.yul\":4663:4665   */\n      0x20\n        /* \"#utility.yul\":4651:4660   */\n      dup3\n        /* \"#utility.yul\":4642:4649   */\n      dup5\n        /* \"#utility.yul\":4638:4661   */\n      sub\n        /* \"#utility.yul\":4634:4666   */\n      slt\n        /* \"#utility.yul\":4631:4750   */\n      iszero\n      tag_81\n      jumpi\n        /* \"#utility.yul\":4669:4748   */\n      tag_82\n      tag_25\n      jump\t// in\n    tag_82:\n        /* \"#utility.yul\":4631:4750   */\n    tag_81:\n        /* \"#utility.yul\":4810:4811   */\n      0x00\n        /* \"#utility.yul\":4799:4808   */\n      dup3\n        /* \"#utility.yul\":4795:4812   */\n      add\n        /* \"#utility.yul\":4789:4813   */\n      mload\n        /* \"#utility.yul\":4840:4858   */\n      0xffffffffffffffff\n        /* \"#utility.yul\":4832:4838   */\n      dup2\n        /* \"#utility.yul\":4829:4859   */\n      gt\n        /* \"#utility.yul\":4826:4943   */\n      iszero\n      tag_83\n      jumpi\n        /* \"#utility.yul\":4862:4941   */\n      tag_84\n      tag_26\n      jump\t// in\n    tag_84:\n        /* \"#utility.yul\":4826:4943   */\n    tag_83:\n        /* \"#utility.yul\":4967:5041   */\n      tag_85\n        /* \"#utility.yul\":5033:5040   */\n      dup5\n        /* \"#utility.yul\":5024:5030   */\n      dup3\n        /* \"#utility.yul\":5013:5022   */\n      dup6\n        /* \"#utility.yul\":5009:5031   */\n      add\n        /* \"#utility.yul\":4967:5041   */\n      tag_34\n      jump\t// in\n    tag_85:\n        /* \"#utility.yul\":4957:5041   */\n      swap2\n      pop\n        /* \"#utility.yul\":4760:5051   */\n      pop\n        /* \"#utility.yul\":4534:5058   */\n      swap3\n      swap2\n      pop\n      pop\n      jump\t// out\n\n    auxdata: 0xa26469706673582212202d275b871f52490201c63de25cf41e6fb13a9038adead292c2df1b8826b61b2b64736f6c634300081a0033\n}\n\nsub_1: assembly {\n        /* \"code/contracts/NewContract.sol\":302:548  contract SecretVault{... */\n      mstore(0x40, 0x80)\n        /* \"code/contracts/NewContract.sol\":357:435  constructor(string memory _secret )  {... */\n      callvalue\n      dup1\n      iszero\n      tag_1\n      jumpi\n      0x00\n      dup1\n      revert\n    tag_1:\n      pop\n      mload(0x40)\n      sub(codesize, bytecodeSize)\n      dup1\n      bytecodeSize\n      dup4\n      codecopy\n      dup2\n      dup2\n      add\n      0x40\n      mstore\n      dup2\n      add\n      swap1\n      tag_2\n      swap2\n      swap1\n      tag_3\n      jump\t// in\n    tag_2:\n        /* \"code/contracts/NewContract.sol\":417:424  _secret */\n      dup1\n        /* \"code/contracts/NewContract.sol\":408:414  secret */\n      0x00\n        /* \"code/contracts/NewContract.sol\":408:424  secret = _secret */\n      swap1\n      dup2\n      tag_6\n      swap2\n      swap1\n      tag_7\n      jump\t// in\n    tag_6:\n      pop\n        /* \"code/contracts/NewContract.sol\":357:435  constructor(string memory _secret )  {... */\n      pop\n        /* \"code/contracts/NewContract.sol\":302:548  contract SecretVault{... */\n      jump(tag_8)\n        /* \"#utility.yul\":7:82   */\n    tag_9:\n        /* \"#utility.yul\":40:46   */\n      0x00\n        /* \"#utility.yul\":73:75   */\n      0x40\n        /* \"#utility.yul\":67:76   */\n      mload\n        /* \"#utility.yul\":57:76   */\n      swap1\n      pop\n        /* \"#utility.yul\":7:82   */\n      swap1\n      jump\t// out\n        /* \"#utility.yul\":88:205   */\n    tag_10:\n        /* \"#utility.yul\":197:198   */\n      0x00\n        /* \"#utility.yul\":194:195   */\n      dup1\n        /* \"#utility.yul\":187:199   */\n      revert\n        /* \"#utility.yul\":211:328   */\n    tag_11:\n        /* \"#utility.yul\":320:321   */\n      0x00\n        /* \"#utility.yul\":317:318   */\n      dup1\n        /* \"#utility.yul\":310:322   */\n      revert\n        /* \"#utility.yul\":334:451   */\n    tag_12:\n        /* \"#utility.yul\":443:444   */\n      0x00\n        /* \"#utility.yul\":440:441   */\n      dup1\n        /* \"#utility.yul\":433:445   */\n      revert\n        /* \"#utility.yul\":457:574   */\n    tag_13:\n        /* \"#utility.yul\":566:567   */\n      0x00\n        /* \"#utility.yul\":563:564   */\n      dup1\n        /* \"#utility.yul\":556:568   */\n      revert\n        /* \"#utility.yul\":580:682   */\n    tag_14:\n        /* \"#utility.yul\":621:627   */\n      0x00\n        /* \"#utility.yul\":672:674   */\n      0x1f\n        /* \"#utility.yul\":668:675   */\n      not\n        /* \"#utility.yul\":663:665   */\n      0x1f\n        /* \"#utility.yul\":656:661   */\n      dup4\n        /* \"#utility.yul\":652:666   */\n      add\n        /* \"#utility.yul\":648:676   */\n      and\n        /* \"#utility.yul\":638:676   */\n      swap1\n      pop\n        /* \"#utility.yul\":580:682   */\n      swap2\n      swap1\n      pop\n      jump\t// out\n        /* \"#utility.yul\":688:868   */\n    tag_15:\n        /* \"#utility.yul\":736:813   */\n      0x4e487b7100000000000000000000000000000000000000000000000000000000\n        /* \"#utility.yul\":733:734   */\n      0x00\n        /* \"#utility.yul\":726:814   */\n      mstore\n        /* \"#utility.yul\":833:837   */\n      0x41\n        /* \"#utility.yul\":830:831   */\n      0x04\n        /* \"#utility.yul\":823:838   */\n      mstore\n        /* \"#utility.yul\":857:861   */\n      0x24\n        /* \"#utility.yul\":854:855   */\n      0x00\n        /* \"#utility.yul\":847:862   */\n      revert\n        /* \"#utility.yul\":874:1155   */\n    tag_16:\n        /* \"#utility.yul\":957:984   */\n      tag_50\n        /* \"#utility.yul\":979:983   */\n      dup3\n        /* \"#utility.yul\":957:984   */\n      tag_14\n      jump\t// in\n    tag_50:\n        /* \"#utility.yul\":949:955   */\n      dup2\n        /* \"#utility.yul\":945:985   */\n      add\n        /* \"#utility.yul\":1087:1093   */\n      dup2\n        /* \"#utility.yul\":1075:1085   */\n      dup2\n        /* \"#utility.yul\":1072:1094   */\n      lt\n        /* \"#utility.yul\":1051:1069   */\n      0xffffffffffffffff\n        /* \"#utility.yul\":1039:1049   */\n      dup3\n        /* \"#utility.yul\":1036:1070   */\n      gt\n        /* \"#utility.yul\":1033:1095   */\n      or\n        /* \"#utility.yul\":1030:1118   */\n      iszero\n      tag_51\n      jumpi\n        /* \"#utility.yul\":1098:1116   */\n      tag_52\n      tag_15\n      jump\t// in\n    tag_52:\n        /* \"#utility.yul\":1030:1118   */\n    tag_51:\n        /* \"#utility.yul\":1138:1148   */\n      dup1\n        /* \"#utility.yul\":1134:1136   */\n      0x40\n        /* \"#utility.yul\":1127:1149   */\n      mstore\n        /* \"#utility.yul\":917:1155   */\n      pop\n        /* \"#utility.yul\":874:1155   */\n      pop\n      pop\n      jump\t// out\n        /* \"#utility.yul\":1161:1290   */\n    tag_17:\n        /* \"#utility.yul\":1195:1201   */\n      0x00\n        /* \"#utility.yul\":1222:1242   */\n      tag_54\n      tag_9\n      jump\t// in\n    tag_54:\n        /* \"#utility.yul\":1212:1242   */\n      swap1\n      pop\n        /* \"#utility.yul\":1251:1284   */\n      tag_55\n        /* \"#utility.yul\":1279:1283   */\n      dup3\n        /* \"#utility.yul\":1271:1277   */\n      dup3\n        /* \"#utility.yul\":1251:1284   */\n      tag_16\n      jump\t// in\n    tag_55:\n        /* \"#utility.yul\":1161:1290   */\n      swap2\n      swap1\n      pop\n      jump\t// out\n        /* \"#utility.yul\":1296:1604   */\n    tag_18:\n        /* \"#utility.yul\":1358:1362   */\n      0x00\n        /* \"#utility.yul\":1448:1466   */\n      0xffffffffffffffff\n        /* \"#utility.yul\":1440:1446   */\n      dup3\n        /* \"#utility.yul\":1437:1467   */\n      gt\n        /* \"#utility.yul\":1434:1490   */\n      iszero\n      tag_57\n      jumpi\n        /* \"#utility.yul\":1470:1488   */\n      tag_58\n      tag_15\n      jump\t// in\n    tag_58:\n        /* \"#utility.yul\":1434:1490   */\n    tag_57:\n        /* \"#utility.yul\":1508:1537   */\n      tag_59\n        /* \"#utility.yul\":1530:1536   */\n      dup3\n        /* \"#utility.yul\":1508:1537   */\n      tag_14\n      jump\t// in\n    tag_59:\n        /* \"#utility.yul\":1500:1537   */\n      swap1\n      pop\n        /* \"#utility.yul\":1592:1596   */\n      0x20\n        /* \"#utility.yul\":1586:1590   */\n      dup2\n        /* \"#utility.yul\":1582:1597   */\n      add\n        /* \"#utility.yul\":1574:1597   */\n      swap1\n      pop\n        /* \"#utility.yul\":1296:1604   */\n      swap2\n      swap1\n      pop\n      jump\t// out\n        /* \"#utility.yul\":1610:1749   */\n    tag_19:\n        /* \"#utility.yul\":1699:1705   */\n      dup3\n        /* \"#utility.yul\":1694:1697   */\n      dup2\n        /* \"#utility.yul\":1689:1692   */\n      dup4\n        /* \"#utility.yul\":1683:1706   */\n      mcopy\n        /* \"#utility.yul\":1740:1741   */\n      0x00\n        /* \"#utility.yul\":1731:1737   */\n      dup4\n        /* \"#utility.yul\":1726:1729   */\n      dup4\n        /* \"#utility.yul\":1722:1738   */\n      add\n        /* \"#utility.yul\":1715:1742   */\n      mstore\n        /* \"#utility.yul\":1610:1749   */\n      pop\n      pop\n      pop\n      jump\t// out\n        /* \"#utility.yul\":1755:2189   */\n    tag_20:\n        /* \"#utility.yul\":1844:1849   */\n      0x00\n        /* \"#utility.yul\":1869:1935   */\n      tag_62\n        /* \"#utility.yul\":1885:1934   */\n      tag_63\n        /* \"#utility.yul\":1927:1933   */\n      dup5\n        /* \"#utility.yul\":1885:1934   */\n      tag_18\n      jump\t// in\n    tag_63:\n        /* \"#utility.yul\":1869:1935   */\n      tag_17\n      jump\t// in\n    tag_62:\n        /* \"#utility.yul\":1860:1935   */\n      swap1\n      pop\n        /* \"#utility.yul\":1958:1964   */\n      dup3\n        /* \"#utility.yul\":1951:1956   */\n      dup2\n        /* \"#utility.yul\":1944:1965   */\n      mstore\n        /* \"#utility.yul\":1996:2000   */\n      0x20\n        /* \"#utility.yul\":1989:1994   */\n      dup2\n        /* \"#utility.yul\":1985:2001   */\n      add\n        /* \"#utility.yul\":2034:2037   */\n      dup5\n        /* \"#utility.yul\":2025:2031   */\n      dup5\n        /* \"#utility.yul\":2020:2023   */\n      dup5\n        /* \"#utility.yul\":2016:2032   */\n      add\n        /* \"#utility.yul\":2013:2038   */\n      gt\n        /* \"#utility.yul\":2010:2122   */\n      iszero\n      tag_64\n      jumpi\n        /* \"#utility.yul\":2041:2120   */\n      tag_65\n      tag_13\n      jump\t// in\n    tag_65:\n        /* \"#utility.yul\":2010:2122   */\n    tag_64:\n        /* \"#utility.yul\":2131:2183   */\n      tag_66\n        /* \"#utility.yul\":2176:2182   */\n      dup5\n        /* \"#utility.yul\":2171:2174   */\n      dup3\n        /* \"#utility.yul\":2166:2169   */\n      dup6\n        /* \"#utility.yul\":2131:2183   */\n      tag_19\n      jump\t// in\n    tag_66:\n        /* \"#utility.yul\":1850:2189   */\n      pop\n        /* \"#utility.yul\":1755:2189   */\n      swap4\n      swap3\n      pop\n      pop\n      pop\n      jump\t// out\n        /* \"#utility.yul\":2209:2564   */\n    tag_21:\n        /* \"#utility.yul\":2276:2281   */\n      0x00\n        /* \"#utility.yul\":2325:2328   */\n      dup3\n        /* \"#utility.yul\":2318:2322   */\n      0x1f\n        /* \"#utility.yul\":2310:2316   */\n      dup4\n        /* \"#utility.yul\":2306:2323   */\n      add\n        /* \"#utility.yul\":2302:2329   */\n      slt\n        /* \"#utility.yul\":2292:2414   */\n      tag_68\n      jumpi\n        /* \"#utility.yul\":2333:2412   */\n      tag_69\n      tag_12\n      jump\t// in\n    tag_69:\n        /* \"#utility.yul\":2292:2414   */\n    tag_68:\n        /* \"#utility.yul\":2443:2449   */\n      dup2\n        /* \"#utility.yul\":2437:2450   */\n      mload\n        /* \"#utility.yul\":2468:2558   */\n      tag_70\n        /* \"#utility.yul\":2554:2557   */\n      dup5\n        /* \"#utility.yul\":2546:2552   */\n      dup3\n        /* \"#utility.yul\":2539:2543   */\n      0x20\n        /* \"#utility.yul\":2531:2537   */\n      dup7\n        /* \"#utility.yul\":2527:2544   */\n      add\n        /* \"#utility.yul\":2468:2558   */\n      tag_20\n      jump\t// in\n    tag_70:\n        /* \"#utility.yul\":2459:2558   */\n      swap2\n      pop\n        /* \"#utility.yul\":2282:2564   */\n      pop\n        /* \"#utility.yul\":2209:2564   */\n      swap3\n      swap2\n      pop\n      pop\n      jump\t// out\n        /* \"#utility.yul\":2570:3094   */\n    tag_3:\n        /* \"#utility.yul\":2650:2656   */\n      0x00\n        /* \"#utility.yul\":2699:2701   */\n      0x20\n        /* \"#utility.yul\":2687:2696   */\n      dup3\n        /* \"#utility.yul\":2678:2685   */\n      dup5\n        /* \"#utility.yul\":2674:2697   */\n      sub\n        /* \"#utility.yul\":2670:2702   */\n      slt\n        /* \"#utility.yul\":2667:2786   */\n      iszero\n      tag_72\n      jumpi\n        /* \"#utility.yul\":2705:2784   */\n      tag_73\n      tag_10\n      jump\t// in\n    tag_73:\n        /* \"#utility.yul\":2667:2786   */\n    tag_72:\n        /* \"#utility.yul\":2846:2847   */\n      0x00\n        /* \"#utility.yul\":2835:2844   */\n      dup3\n        /* \"#utility.yul\":2831:2848   */\n      add\n        /* \"#utility.yul\":2825:2849   */\n      mload\n        /* \"#utility.yul\":2876:2894   */\n      0xffffffffffffffff\n        /* \"#utility.yul\":2868:2874   */\n      dup2\n        /* \"#utility.yul\":2865:2895   */\n      gt\n        /* \"#utility.yul\":2862:2979   */\n      iszero\n      tag_74\n      jumpi\n        /* \"#utility.yul\":2898:2977   */\n      tag_75\n      tag_11\n      jump\t// in\n    tag_75:\n        /* \"#utility.yul\":2862:2979   */\n    tag_74:\n        /* \"#utility.yul\":3003:3077   */\n      tag_76\n        /* \"#utility.yul\":3069:3076   */\n      dup5\n        /* \"#utility.yul\":3060:3066   */\n      dup3\n        /* \"#utility.yul\":3049:3058   */\n      dup6\n        /* \"#utility.yul\":3045:3067   */\n      add\n        /* \"#utility.yul\":3003:3077   */\n      tag_21\n      jump\t// in\n    tag_76:\n        /* \"#utility.yul\":2993:3077   */\n      swap2\n      pop\n        /* \"#utility.yul\":2796:3087   */\n      pop\n        /* \"#utility.yul\":2570:3094   */\n      swap3\n      swap2\n      pop\n      pop\n      jump\t// out\n        /* \"#utility.yul\":3100:3199   */\n    tag_22:\n        /* \"#utility.yul\":3152:3158   */\n      0x00\n        /* \"#utility.yul\":3186:3191   */\n      dup2\n        /* \"#utility.yul\":3180:3192   */\n      mload\n        /* \"#utility.yul\":3170:3192   */\n      swap1\n      pop\n        /* \"#utility.yul\":3100:3199   */\n      swap2\n      swap1\n      pop\n      jump\t// out\n        /* \"#utility.yul\":3205:3385   */\n    tag_23:\n        /* \"#utility.yul\":3253:3330   */\n      0x4e487b7100000000000000000000000000000000000000000000000000000000\n        /* \"#utility.yul\":3250:3251   */\n      0x00\n        /* \"#utility.yul\":3243:3331   */\n      mstore\n        /* \"#utility.yul\":3350:3354   */\n      0x22\n        /* \"#utility.yul\":3347:3348   */\n      0x04\n        /* \"#utility.yul\":3340:3355   */\n      mstore\n        /* \"#utility.yul\":3374:3378   */\n      0x24\n        /* \"#utility.yul\":3371:3372   */\n      0x00\n        /* \"#utility.yul\":3364:3379   */\n      revert\n        /* \"#utility.yul\":3391:3711   */\n    tag_24:\n        /* \"#utility.yul\":3435:3441   */\n      0x00\n        /* \"#utility.yul\":3472:3473   */\n      0x02\n        /* \"#utility.yul\":3466:3470   */\n      dup3\n        /* \"#utility.yul\":3462:3474   */\n      div\n        /* \"#utility.yul\":3452:3474   */\n      swap1\n      pop\n        /* \"#utility.yul\":3519:3520   */\n      0x01\n        /* \"#utility.yul\":3513:3517   */\n      dup3\n        /* \"#utility.yul\":3509:3521   */\n      and\n        /* \"#utility.yul\":3540:3558   */\n      dup1\n        /* \"#utility.yul\":3530:3611   */\n      tag_80\n      jumpi\n        /* \"#utility.yul\":3596:3600   */\n      0x7f\n        /* \"#utility.yul\":3588:3594   */\n      dup3\n        /* \"#utility.yul\":3584:3601   */\n      and\n        /* \"#utility.yul\":3574:3601   */\n      swap2\n      pop\n        /* \"#utility.yul\":3530:3611   */\n    tag_80:\n        /* \"#utility.yul\":3658:3660   */\n      0x20\n        /* \"#utility.yul\":3650:3656   */\n      dup3\n        /* \"#utility.yul\":3647:3661   */\n      lt\n        /* \"#utility.yul\":3627:3645   */\n      dup2\n        /* \"#utility.yul\":3624:3662   */\n      sub\n        /* \"#utility.yul\":3621:3705   */\n      tag_81\n      jumpi\n        /* \"#utility.yul\":3677:3695   */\n      tag_82\n      tag_23\n      jump\t// in\n    tag_82:\n        /* \"#utility.yul\":3621:3705   */\n    tag_81:\n        /* \"#utility.yul\":3442:3711   */\n      pop\n        /* \"#utility.yul\":3391:3711   */\n      swap2\n      swap1\n      pop\n      jump\t// out\n        /* \"#utility.yul\":3717:3858   */\n    tag_25:\n        /* \"#utility.yul\":3766:3770   */\n      0x00\n        /* \"#utility.yul\":3789:3792   */\n      dup2\n        /* \"#utility.yul\":3781:3792   */\n      swap1\n      pop\n        /* \"#utility.yul\":3812:3815   */\n      dup2\n        /* \"#utility.yul\":3809:3810   */\n      0x00\n        /* \"#utility.yul\":3802:3816   */\n      mstore\n        /* \"#utility.yul\":3846:3850   */\n      0x20\n        /* \"#utility.yul\":3843:3844   */\n      0x00\n        /* \"#utility.yul\":3833:3851   */\n      keccak256\n        /* \"#utility.yul\":3825:3851   */\n      swap1\n      pop\n        /* \"#utility.yul\":3717:3858   */\n      swap2\n      swap1\n      pop\n      jump\t// out\n        /* \"#utility.yul\":3864:3957   */\n    tag_26:\n        /* \"#utility.yul\":3901:3907   */\n      0x00\n        /* \"#utility.yul\":3948:3950   */\n      0x20\n        /* \"#utility.yul\":3943:3945   */\n      0x1f\n        /* \"#utility.yul\":3936:3941   */\n      dup4\n        /* \"#utility.yul\":3932:3946   */\n      add\n        /* \"#utility.yul\":3928:3951   */\n      div\n        /* \"#utility.yul\":3918:3951   */\n      swap1\n      pop\n        /* \"#utility.yul\":3864:3957   */\n      swap2\n      swap1\n      pop\n      jump\t// out\n        /* \"#utility.yul\":3963:4070   */\n    tag_27:\n        /* \"#utility.yul\":4007:4015   */\n      0x00\n        /* \"#utility.yul\":4057:4062   */\n      dup3\n        /* \"#utility.yul\":4051:4055   */\n      dup3\n        /* \"#utility.yul\":4047:4063   */\n      shl\n        /* \"#utility.yul\":4026:4063   */\n      swap1\n      pop\n        /* \"#utility.yul\":3963:4070   */\n      swap3\n      swap2\n      pop\n      pop\n      jump\t// out\n        /* \"#utility.yul\":4076:4469   */\n    tag_28:\n        /* \"#utility.yul\":4145:4151   */\n      0x00\n        /* \"#utility.yul\":4195:4196   */\n      0x08\n        /* \"#utility.yul\":4183:4193   */\n      dup4\n        /* \"#utility.yul\":4179:4197   */\n      mul\n        /* \"#utility.yul\":4218:4315   */\n      tag_87\n        /* \"#utility.yul\":4248:4314   */\n      0xffffffffffffffffffffffffffffffffffffffffffffffffffffffffffffffff\n        /* \"#utility.yul\":4237:4246   */\n      dup3\n        /* \"#utility.yul\":4218:4315   */\n      tag_27\n      jump\t// in\n    tag_87:\n        /* \"#utility.yul\":4336:4375   */\n      tag_88\n        /* \"#utility.yul\":4366:4374   */\n      dup7\n        /* \"#utility.yul\":4355:4364   */\n      dup4\n        /* \"#utility.yul\":4336:4375   */\n      tag_27\n      jump\t// in\n    tag_88:\n        /* \"#utility.yul\":4324:4375   */\n      swap6\n      pop\n        /* \"#utility.yul\":4408:4412   */\n      dup1\n        /* \"#utility.yul\":4404:4413   */\n      not\n        /* \"#utility.yul\":4397:4402   */\n      dup5\n        /* \"#utility.yul\":4393:4414   */\n      and\n        /* \"#utility.yul\":4384:4414   */\n      swap4\n      pop\n        /* \"#utility.yul\":4457:4461   */\n      dup1\n        /* \"#utility.yul\":4447:4455   */\n      dup7\n        /* \"#utility.yul\":4443:4462   */\n      and\n        /* \"#utility.yul\":4436:4441   */\n      dup5\n        /* \"#utility.yul\":4433:4463   */\n      or\n        /* \"#utility.yul\":4423:4463   */\n      swap3\n      pop\n        /* \"#utility.yul\":4152:4469   */\n      pop\n      pop\n        /* \"#utility.yul\":4076:4469   */\n      swap4\n      swap3\n      pop\n      pop\n      pop\n      jump\t// out\n        /* \"#utility.yul\":4475:4552   */\n    tag_29:\n        /* \"#utility.yul\":4512:4519   */\n      0x00\n        /* \"#utility.yul\":4541:4546   */\n      dup2\n        /* \"#utility.yul\":4530:4546   */\n      swap1\n      pop\n        /* \"#utility.yul\":4475:4552   */\n      swap2\n      swap1\n      pop\n      jump\t// out\n        /* \"#utility.yul\":4558:4618   */\n    tag_30:\n        /* \"#utility.yul\":4586:4589   */\n      0x00\n        /* \"#utility.yul\":4607:4612   */\n      dup2\n        /* \"#utility.yul\":4600:4612   */\n      swap1\n      pop\n        /* \"#utility.yul\":4558:4618   */\n      swap2\n      swap1\n      pop\n      jump\t// out\n        /* \"#utility.yul\":4624:4766   */\n    tag_31:\n        /* \"#utility.yul\":4674:4683   */\n      0x00\n        /* \"#utility.yul\":4707:4760   */\n      tag_92\n        /* \"#utility.yul\":4725:4759   */\n      tag_93\n        /* \"#utility.yul\":4734:4758   */\n      tag_94\n        /* \"#utility.yul\":4752:4757   */\n      dup5\n        /* \"#utility.yul\":4734:4758   */\n      tag_29\n      jump\t// in\n    tag_94:\n        /* \"#utility.yul\":4725:4759   */\n      tag_30\n      jump\t// in\n    tag_93:\n        /* \"#utility.yul\":4707:4760   */\n      tag_29\n      jump\t// in\n    tag_92:\n        /* \"#utility.yul\":4694:4760   */\n      swap1\n      pop\n        /* \"#utility.yul\":4624:4766   */\n      swap2\n      swap1\n      pop\n      jump\t// out\n        /* \"#utility.yul\":4772:4847   */\n    tag_32:\n        /* \"#utility.yul\":4815:4818   */\n      0x00\n        /* \"#utility.yul\":4836:4841   */\n      dup2\n        /* \"#utility.yul\":4829:4841   */\n      swap1\n      pop\n        /* \"#utility.yul\":4772:4847   */\n      swap2\n      swap1\n      pop\n      jump\t// out\n        /* \"#utility.yul\":4853:5122   */\n    tag_33:\n        /* \"#utility.yul\":4963:5002   */\n      tag_97\n        /* \"#utility.yul\":4994:5001   */\n      dup4\n        /* \"#utility.yul\":4963:5002   */\n      tag_31\n      jump\t// in\n    tag_97:\n        /* \"#utility.yul\":5024:5115   */\n      tag_98\n        /* \"#utility.yul\":5073:5114   */\n      tag_99\n        /* \"#utility.yul\":5097:5113   */\n      dup3\n        /* \"#utility.yul\":5073:5114   */\n      tag_32\n      jump\t// in\n    tag_99:\n        /* \"#utility.yul\":5065:5071   */\n      dup5\n        /* \"#utility.yul\":5058:5062   */\n      dup5\n        /* \"#utility.yul\":5052:5063   */\n      sload\n        /* \"#utility.yul\":5024:5115   */\n      tag_28\n      jump\t// in\n    tag_98:\n        /* \"#utility.yul\":5018:5022   */\n      dup3\n        /* \"#utility.yul\":5011:5116   */\n      sstore\n        /* \"#utility.yul\":4929:5122   */\n      pop\n        /* \"#utility.yul\":4853:5122   */\n      pop\n      pop\n      pop\n      jump\t// out\n        /* \"#utility.yul\":5128:5201   */\n    tag_34:\n        /* \"#utility.yul\":5173:5176   */\n      0x00\n        /* \"#utility.yul\":5128:5201   */\n      swap1\n      jump\t// out\n        /* \"#utility.yul\":5207:5396   */\n    tag_35:\n        /* \"#utility.yul\":5284:5316   */\n      tag_102\n      tag_34\n      jump\t// in\n    tag_102:\n        /* \"#utility.yul\":5325:5390   */\n      tag_103\n        /* \"#utility.yul\":5383:5389   */\n      dup2\n        /* \"#utility.yul\":5375:5381   */\n      dup5\n        /* \"#utility.yul\":5369:5373   */\n      dup5\n        /* \"#utility.yul\":5325:5390   */\n      tag_33\n      jump\t// in\n    tag_103:\n        /* \"#utility.yul\":5260:5396   */\n      pop\n        /* \"#utility.yul\":5207:5396   */\n      pop\n      pop\n      jump\t// out\n        /* \"#utility.yul\":5402:5588   */\n    tag_36:\n        /* \"#utility.yul\":5462:5582   */\n    tag_105:\n        /* \"#utility.yul\":5479:5482   */\n      dup2\n        /* \"#utility.yul\":5472:5477   */\n      dup2\n        /* \"#utility.yul\":5469:5483   */\n      lt\n        /* \"#utility.yul\":5462:5582   */\n      iszero\n      tag_107\n      jumpi\n        /* \"#utility.yul\":5533:5572   */\n      tag_108\n        /* \"#utility.yul\":5570:5571   */\n      0x00\n        /* \"#utility.yul\":5563:5568   */\n      dup3\n        /* \"#utility.yul\":5533:5572   */\n      tag_35\n      jump\t// in\n    tag_108:\n        /* \"#utility.yul\":5506:5507   */\n      0x01\n        /* \"#utility.yul\":5499:5504   */\n      dup2\n        /* \"#utility.yul\":5495:5508   */\n      add\n        /* \"#utility.yul\":5486:5508   */\n      swap1\n      pop\n        /* \"#utility.yul\":5462:5582   */\n      jump(tag_105)\n    tag_107:\n        /* \"#utility.yul\":5402:5588   */\n      pop\n      pop\n      jump\t// out\n        /* \"#utility.yul\":5594:6137   */\n    tag_37:\n        /* \"#utility.yul\":5695:5697   */\n      0x1f\n        /* \"#utility.yul\":5690:5693   */\n      dup3\n        /* \"#utility.yul\":5687:5698   */\n      gt\n        /* \"#utility.yul\":5684:6130   */\n      iszero\n      tag_110\n      jumpi\n        /* \"#utility.yul\":5729:5767   */\n      tag_111\n        /* \"#utility.yul\":5761:5766   */\n      dup2\n        /* \"#utility.yul\":5729:5767   */\n      tag_25\n      jump\t// in\n    tag_111:\n        /* \"#utility.yul\":5813:5842   */\n      tag_112\n        /* \"#utility.yul\":5831:5841   */\n      dup5\n        /* \"#utility.yul\":5813:5842   */\n      tag_26\n      jump\t// in\n    tag_112:\n        /* \"#utility.yul\":5803:5811   */\n      dup2\n        /* \"#utility.yul\":5799:5843   */\n      add\n        /* \"#utility.yul\":5996:5998   */\n      0x20\n        /* \"#utility.yul\":5984:5994   */\n      dup6\n        /* \"#utility.yul\":5981:5999   */\n      lt\n        /* \"#utility.yul\":5978:6027   */\n      iszero\n      tag_113\n      jumpi\n        /* \"#utility.yul\":6017:6025   */\n      dup2\n        /* \"#utility.yul\":6002:6025   */\n      swap1\n      pop\n        /* \"#utility.yul\":5978:6027   */\n    tag_113:\n        /* \"#utility.yul\":6040:6120   */\n      tag_114\n        /* \"#utility.yul\":6096:6118   */\n      tag_115\n        /* \"#utility.yul\":6114:6117   */\n      dup6\n        /* \"#utility.yul\":6096:6118   */\n      tag_26\n      jump\t// in\n    tag_115:\n        /* \"#utility.yul\":6086:6094   */\n      dup4\n        /* \"#utility.yul\":6082:6119   */\n      add\n        /* \"#utility.yul\":6069:6080   */\n      dup3\n        /* \"#utility.yul\":6040:6120   */\n      tag_36\n      jump\t// in\n    tag_114:\n        /* \"#utility.yul\":5699:6130   */\n      pop\n      pop\n        /* \"#utility.yul\":5684:6130   */\n    tag_110:\n        /* \"#utility.yul\":5594:6137   */\n      pop\n      pop\n      pop\n      jump\t// out\n        /* \"#utility.yul\":6143:6260   */\n    tag_38:\n        /* \"#utility.yul\":6197:6205   */\n      0x00\n        /* \"#utility.yul\":6247:6252   */\n      dup3\n        /* \"#utility.yul\":6241:6245   */\n      dup3\n        /* \"#utility.yul\":6237:6253   */\n      shr\n        /* \"#utility.yul\":6216:6253   */\n      swap1\n      pop\n        /* \"#utility.yul\":6143:6260   */\n      swap3\n      swap2\n      pop\n      pop\n      jump\t// out\n        /* \"#utility.yul\":6266:6435   */\n    tag_39:\n        /* \"#utility.yul\":6310:6316   */\n      0x00\n        /* \"#utility.yul\":6343:6394   */\n      tag_118\n        /* \"#utility.yul\":6391:6392   */\n      0x00\n        /* \"#utility.yul\":6387:6393   */\n      not\n        /* \"#utility.yul\":6379:6384   */\n      dup5\n        /* \"#utility.yul\":6376:6377   */\n      0x08\n        /* \"#utility.yul\":6372:6385   */\n      mul\n        /* \"#utility.yul\":6343:6394   */\n      tag_38\n      jump\t// in\n    tag_118:\n        /* \"#utility.yul\":6339:6395   */\n      not\n        /* \"#utility.yul\":6424:6428   */\n      dup1\n        /* \"#utility.yul\":6418:6422   */\n      dup4\n        /* \"#utility.yul\":6414:6429   */\n      and\n        /* \"#utility.yul\":6404:6429   */\n      swap2\n      pop\n        /* \"#utility.yul\":6317:6435   */\n      pop\n        /* \"#utility.yul\":6266:6435   */\n      swap3\n      swap2\n      pop\n      pop\n      jump\t// out\n        /* \"#utility.yul\":6440:6735   */\n    tag_40:\n        /* \"#utility.yul\":6516:6520   */\n      0x00\n        /* \"#utility.yul\":6662:6691   */\n      tag_120\n        /* \"#utility.yul\":6687:6690   */\n      dup4\n        /* \"#utility.yul\":6681:6685   */\n      dup4\n        /* \"#utility.yul\":6662:6691   */\n      tag_39\n      jump\t// in\n    tag_120:\n        /* \"#utility.yul\":6654:6691   */\n      swap2\n      pop\n        /* \"#utility.yul\":6724:6727   */\n      dup3\n        /* \"#utility.yul\":6721:6722   */\n      0x02\n        /* \"#utility.yul\":6717:6728   */\n      mul\n        /* \"#utility.yul\":6711:6715   */\n      dup3\n        /* \"#utility.yul\":6708:6729   */\n      or\n        /* \"#utility.yul\":6700:6729   */\n      swap1\n      pop\n        /* \"#utility.yul\":6440:6735   */\n      swap3\n      swap2\n      pop\n      pop\n      jump\t// out\n        /* \"#utility.yul\":6740:8135   */\n    tag_7:\n        /* \"#utility.yul\":6857:6894   */\n      tag_122\n        /* \"#utility.yul\":6890:6893   */\n      dup3\n        /* \"#utility.yul\":6857:6894   */\n      tag_22\n      jump\t// in\n    tag_122:\n        /* \"#utility.yul\":6959:6977   */\n      0xffffffffffffffff\n        /* \"#utility.yul\":6951:6957   */\n      dup2\n        /* \"#utility.yul\":6948:6978   */\n      gt\n        /* \"#utility.yul\":6945:7001   */\n      iszero\n      tag_123\n      jumpi\n        /* \"#utility.yul\":6981:6999   */\n      tag_124\n      tag_15\n      jump\t// in\n    tag_124:\n        /* \"#utility.yul\":6945:7001   */\n    tag_123:\n        /* \"#utility.yul\":7025:7063   */\n      tag_125\n        /* \"#utility.yul\":7057:7061   */\n      dup3\n        /* \"#utility.yul\":7051:7062   */\n      sload\n        /* \"#utility.yul\":7025:7063   */\n      tag_24\n      jump\t// in\n    tag_125:\n        /* \"#utility.yul\":7110:7177   */\n      tag_126\n        /* \"#utility.yul\":7170:7176   */\n      dup3\n        /* \"#utility.yul\":7162:7168   */\n      dup3\n        /* \"#utility.yul\":7156:7160   */\n      dup6\n        /* \"#utility.yul\":7110:7177   */\n      tag_37\n      jump\t// in\n    tag_126:\n        /* \"#utility.yul\":7204:7205   */\n      0x00\n        /* \"#utility.yul\":7228:7232   */\n      0x20\n        /* \"#utility.yul\":7215:7232   */\n      swap1\n      pop\n        /* \"#utility.yul\":7260:7262   */\n      0x1f\n        /* \"#utility.yul\":7252:7258   */\n      dup4\n        /* \"#utility.yul\":7249:7263   */\n      gt\n        /* \"#utility.yul\":7277:7278   */\n      0x01\n        /* \"#utility.yul\":7272:7890   */\n      dup2\n      eq\n      tag_128\n      jumpi\n        /* \"#utility.yul\":7934:7935   */\n      0x00\n        /* \"#utility.yul\":7951:7957   */\n      dup5\n        /* \"#utility.yul\":7948:8025   */\n      iszero\n      tag_129\n      jumpi\n        /* \"#utility.yul\":8000:8009   */\n      dup3\n        /* \"#utility.yul\":7995:7998   */\n      dup8\n        /* \"#utility.yul\":7991:8010   */\n      add\n        /* \"#utility.yul\":7985:8011   */\n      mload\n        /* \"#utility.yul\":7976:8011   */\n      swap1\n      pop\n        /* \"#utility.yul\":7948:8025   */\n    tag_129:\n        /* \"#utility.yul\":8051:8118   */\n      tag_130\n        /* \"#utility.yul\":8111:8117   */\n      dup6\n        /* \"#utility.yul\":8104:8109   */\n      dup3\n        /* \"#utility.yul\":8051:8118   */\n      tag_40\n      jump\t// in\n    tag_130:\n        /* \"#utility.yul\":8045:8049   */\n      dup7\n        /* \"#utility.yul\":8038:8119   */\n      sstore\n        /* \"#utility.yul\":7907:8129   */\n      pop\n        /* \"#utility.yul\":7242:8129   */\n      jump(tag_127)\n        /* \"#utility.yul\":7272:7890   */\n    tag_128:\n        /* \"#utility.yul\":7324:7328   */\n      0x1f\n        /* \"#utility.yul\":7320:7329   */\n      not\n        /* \"#utility.yul\":7312:7318   */\n      dup5\n        /* \"#utility.yul\":7308:7330   */\n      and\n        /* \"#utility.yul\":7358:7395   */\n      tag_131\n        /* \"#utility.yul\":7390:7394   */\n      dup7\n        /* \"#utility.yul\":7358:7395   */\n      tag_25\n      jump\t// in\n    tag_131:\n        /* \"#utility.yul\":7417:7418   */\n      0x00\n        /* \"#utility.yul\":7431:7639   */\n    tag_132:\n        /* \"#utility.yul\":7445:7452   */\n      dup3\n        /* \"#utility.yul\":7442:7443   */\n      dup2\n        /* \"#utility.yul\":7439:7453   */\n      lt\n        /* \"#utility.yul\":7431:7639   */\n      iszero\n      tag_134\n      jumpi\n        /* \"#utility.yul\":7524:7533   */\n      dup5\n        /* \"#utility.yul\":7519:7522   */\n      dup10\n        /* \"#utility.yul\":7515:7534   */\n      add\n        /* \"#utility.yul\":7509:7535   */\n      mload\n        /* \"#utility.yul\":7501:7507   */\n      dup3\n        /* \"#utility.yul\":7494:7536   */\n      sstore\n        /* \"#utility.yul\":7575:7576   */\n      0x01\n        /* \"#utility.yul\":7567:7573   */\n      dup3\n        /* \"#utility.yul\":7563:7577   */\n      add\n        /* \"#utility.yul\":7553:7577   */\n      swap2\n      pop\n        /* \"#utility.yul\":7622:7624   */\n      0x20\n        /* \"#utility.yul\":7611:7620   */\n      dup6\n        /* \"#utility.yul\":7607:7625   */\n      add\n        /* \"#utility.yul\":7594:7625   */\n      swap5\n      pop\n        /* \"#utility.yul\":7468:7472   */\n      0x20\n        /* \"#utility.yul\":7465:7466   */\n      dup2\n        /* \"#utility.yul\":7461:7473   */\n      add\n        /* \"#utility.yul\":7456:7473   */\n      swap1\n      pop\n        /* \"#utility.yul\":7431:7639   */\n      jump(tag_132)\n    tag_134:\n        /* \"#utility.yul\":7667:7673   */\n      dup7\n        /* \"#utility.yul\":7658:7665   */\n      dup4\n        /* \"#utility.yul\":7655:7674   */\n      lt\n        /* \"#utility.yul\":7652:7831   */\n      iszero\n      tag_135\n      jumpi\n        /* \"#utility.yul\":7725:7734   */\n      dup5\n        /* \"#utility.yul\":7720:7723   */\n      dup10\n        /* \"#utility.yul\":7716:7735   */\n      add\n        /* \"#utility.yul\":7710:7736   */\n      mload\n        /* \"#utility.yul\":7768:7816   */\n      tag_136\n        /* \"#utility.yul\":7810:7814   */\n      0x1f\n        /* \"#utility.yul\":7802:7808   */\n      dup10\n        /* \"#utility.yul\":7798:7815   */\n      and\n        /* \"#utility.yul\":7787:7796   */\n      dup3\n        /* \"#utility.yul\":7768:7816   */\n      tag_39\n      jump\t// in\n    tag_136:\n        /* \"#utility.yul\":7760:7766   */\n      dup4\n        /* \"#utility.yul\":7753:7817   */\n      sstore\n        /* \"#utility.yul\":7675:7831   */\n      pop\n        /* \"#utility.yul\":7652:7831   */\n    tag_135:\n        /* \"#utility.yul\":7877:7878   */\n      0x01\n        /* \"#utility.yul\":7873:7874   */\n      0x02\n        /* \"#utility.yul\":7865:7871   */\n      dup9\n        /* \"#utility.yul\":7861:7875   */\n      mul\n        /* \"#utility.yul\":7857:7879   */\n      add\n        /* \"#utility.yul\":7851:7855   */\n      dup9\n        /* \"#utility.yul\":7844:7880   */\n      sstore\n        /* \"#utility.yul\":7279:7890   */\n      pop\n      pop\n      pop\n        /* \"#utility.yul\":7242:8129   */\n    tag_127:\n      pop\n        /* \"#utility.yul\":6832:8135   */\n      pop\n      pop\n      pop\n        /* \"#utility.yul\":6740:8135   */\n      pop\n      pop\n      jump\t// out\n        /* \"code/contracts/NewContract.sol\":302:548  contract SecretVault{... */\n    tag_8:\n      dataSize(sub_0)\n      dup1\n      dataOffset(sub_0)\n      0x00\n      codecopy\n      0x00\n      return\n    stop\n\n    sub_0: assembly {\n            /* \"code/contracts/NewContract.sol\":302:548  contract SecretVault{... */\n          mstore(0x40, 0x80)\n          callvalue\n          dup1\n          iszero\n          tag_1\n          jumpi\n          0x00\n          dup1\n          revert\n        tag_1:\n          pop\n          jumpi(tag_2, lt(calldatasize, 0x04))\n          shr(0xe0, calldataload(0x00))\n          dup1\n          0x5b9fdc30\n          eq\n          tag_3\n          jumpi\n        tag_2:\n          0x00\n          dup1\n          revert\n            /* \"code/contracts/NewContract.sol\":446:545  function getSecret() public view  returns (string memory){... */\n        tag_3:\n          tag_4\n          tag_5\n          jump\t// in\n        tag_4:\n          mload(0x40)\n          tag_6\n          swap2\n          swap1\n          tag_7\n          jump\t// in\n        tag_6:\n          mload(0x40)\n          dup1\n          swap2\n          sub\n          swap1\n          return\n        tag_5:\n            /* \"code/contracts/NewContract.sol\":489:502  string memory */\n          0x60\n            /* \"code/contracts/NewContract.sol\":528:534  secret */\n          0x00\n            /* \"code/contracts/NewContract.sol\":521:534  return secret */\n          dup1\n          sload\n          tag_9\n          swap1\n          tag_10\n          jump\t// in\n        tag_9:\n          dup1\n          0x1f\n          add\n          0x20\n          dup1\n          swap2\n          div\n          mul\n          0x20\n          add\n          mload(0x40)\n          swap1\n          dup2\n          add\n          0x40\n          mstore\n          dup1\n          swap3\n          swap2\n          swap1\n          dup2\n          dup2\n          mstore\n          0x20\n          add\n          dup3\n          dup1\n          sload\n          tag_11\n          swap1\n          tag_10\n          jump\t// in\n        tag_11:\n          dup1\n          iszero\n          tag_12\n          jumpi\n          dup1\n          0x1f\n          lt\n          tag_13\n          jumpi\n          0x0100\n          dup1\n          dup4\n          sload\n          div\n          mul\n          dup4\n          mstore\n          swap2\n          0x20\n          add\n          swap2\n          jump(tag_12)\n        tag_13:\n          dup3\n          add\n          swap2\n          swap1\n          0x00\n          mstore\n          keccak256(0x00, 0x20)\n          swap1\n        tag_14:\n          dup2\n          sload\n          dup2\n          mstore\n          swap1\n          0x01\n          add\n          swap1\n          0x20\n          add\n          dup1\n          dup4\n          gt\n          tag_14\n          jumpi\n          dup3\n          swap1\n          sub\n          0x1f\n          and\n          dup3\n          add\n          swap2\n        tag_12:\n          pop\n          pop\n          pop\n          pop\n          pop\n          swap1\n          pop\n            /* \"code/contracts/NewContract.sol\":446:545  function getSecret() public view  returns (string memory){... */\n          swap1\n          jump\t// out\n            /* \"#utility.yul\":7:106   */\n        tag_15:\n            /* \"#utility.yul\":59:65   */\n          0x00\n            /* \"#utility.yul\":93:98   */\n          dup2\n            /* \"#utility.yul\":87:99   */\n          mload\n            /* \"#utility.yul\":77:99   */\n          swap1\n          pop\n            /* \"#utility.yul\":7:106   */\n          swap2\n          swap1\n          pop\n          jump\t// out\n            /* \"#utility.yul\":112:281   */\n        tag_16:\n            /* \"#utility.yul\":196:207   */\n          0x00\n            /* \"#utility.yul\":230:236   */\n          dup3\n            /* \"#utility.yul\":225:228   */\n          dup3\n            /* \"#utility.yul\":218:237   */\n          mstore\n            /* \"#utility.yul\":270:274   */\n          0x20\n            /* \"#utility.yul\":265:268   */\n          dup3\n            /* \"#utility.yul\":261:275   */\n          add\n            /* \"#utility.yul\":246:275   */\n          swap1\n          pop\n            /* \"#utility.yul\":112:281   */\n          swap3\n          swap2\n          pop\n          pop\n          jump\t// out\n            /* \"#utility.yul\":287:426   */\n        tag_17:\n            /* \"#utility.yul\":376:382   */\n          dup3\n            /* \"#utility.yul\":371:374   */\n          dup2\n            /* \"#utility.yul\":366:369   */\n          dup4\n            /* \"#utility.yul\":360:383   */\n          mcopy\n            /* \"#utility.yul\":417:418   */\n          0x00\n            /* \"#utility.yul\":408:414   */\n          dup4\n            /* \"#utility.yul\":403:406   */\n          dup4\n            /* \"#utility.yul\":399:415   */\n          add\n            /* \"#utility.yul\":392:419   */\n          mstore\n            /* \"#utility.yul\":287:426   */\n          pop\n          pop\n          pop\n          jump\t// out\n            /* \"#utility.yul\":432:534   */\n        tag_18:\n            /* \"#utility.yul\":473:479   */\n          0x00\n            /* \"#utility.yul\":524:526   */\n          0x1f\n            /* \"#utility.yul\":520:527   */\n          not\n            /* \"#utility.yul\":515:517   */\n          0x1f\n            /* \"#utility.yul\":508:513   */\n          dup4\n            /* \"#utility.yul\":504:518   */\n          add\n            /* \"#utility.yul\":500:528   */\n          and\n            /* \"#utility.yul\":490:528   */\n          swap1\n          pop\n            /* \"#utility.yul\":432:534   */\n          swap2\n          swap1\n          pop\n          jump\t// out\n            /* \"#utility.yul\":540:917   */\n        tag_19:\n            /* \"#utility.yul\":628:631   */\n          0x00\n            /* \"#utility.yul\":656:695   */\n          tag_27\n            /* \"#utility.yul\":689:694   */\n          dup3\n            /* \"#utility.yul\":656:695   */\n          tag_15\n          jump\t// in\n        tag_27:\n            /* \"#utility.yul\":711:782   */\n          tag_28\n            /* \"#utility.yul\":775:781   */\n          dup2\n            /* \"#utility.yul\":770:773   */\n          dup6\n            /* \"#utility.yul\":711:782   */\n          tag_16\n          jump\t// in\n        tag_28:\n            /* \"#utility.yul\":704:782   */\n          swap4\n          pop\n            /* \"#utility.yul\":791:856   */\n          tag_29\n            /* \"#utility.yul\":849:855   */\n          dup2\n            /* \"#utility.yul\":844:847   */\n          dup6\n            /* \"#utility.yul\":837:841   */\n          0x20\n            /* \"#utility.yul\":830:835   */\n          dup7\n            /* \"#utility.yul\":826:842   */\n          add\n            /* \"#utility.yul\":791:856   */\n          tag_17\n          jump\t// in\n        tag_29:\n            /* \"#utility.yul\":881:910   */\n          tag_30\n            /* \"#utility.yul\":903:909   */\n          dup2\n            /* \"#utility.yul\":881:910   */\n          tag_18\n          jump\t// in\n        tag_30:\n            /* \"#utility.yul\":876:879   */\n          dup5\n            /* \"#utility.yul\":872:911   */\n          add\n            /* \"#utility.yul\":865:911   */\n          swap2\n          pop\n            /* \"#utility.yul\":632:917   */\n          pop\n            /* \"#utility.yul\":540:917   */\n          swap3\n          swap2\n          pop\n          pop\n          jump\t// out\n            /* \"#utility.yul\":923:1236   */\n        tag_7:\n            /* \"#utility.yul\":1036:1040   */\n          0x00\n            /* \"#utility.yul\":1074:1076   */\n          0x20\n            /* \"#utility.yul\":1063:1072   */\n          dup3\n            /* \"#utility.yul\":1059:1077   */\n          add\n            /* \"#utility.yul\":1051:1077   */\n          swap1\n          pop\n            /* \"#utility.yul\":1123:1132   */\n          dup2\n            /* \"#utility.yul\":1117:1121   */\n          dup2\n            /* \"#utility.yul\":1113:1133   */\n          sub\n            /* \"#utility.yul\":1109:1110   */\n          0x00\n            /* \"#utility.yul\":1098:1107   */\n          dup4\n            /* \"#utility.yul\":1094:1111   */\n          add\n            /* \"#utility.yul\":1087:1134   */\n          mstore\n            /* \"#utility.yul\":1151:1229   */\n          tag_32\n            /* \"#utility.yul\":1224:1228   */\n          dup2\n            /* \"#utility.yul\":1215:1221   */\n          dup5\n            /* \"#utility.yul\":1151:1229   */\n          tag_19\n          jump\t// in\n        tag_32:\n            /* \"#utility.yul\":1143:1229   */\n          swap1\n          pop\n            /* \"#utility.yul\":923:1236   */\n          swap3\n          swap2\n          pop\n          pop\n          jump\t// out\n            /* \"#utility.yul\":1242:1422   */\n        tag_20:\n            /* \"#utility.yul\":1290:1367   */\n          0x4e487b7100000000000000000000000000000000000000000000000000000000\n            /* \"#utility.yul\":1287:1288   */\n          0x00\n            /* \"#utility.yul\":1280:1368   */\n          mstore\n            /* \"#utility.yul\":1387:1391   */\n          0x22\n            /* \"#utility.yul\":1384:1385   */\n          0x04\n            /* \"#utility.yul\":1377:1392   */\n          mstore\n            /* \"#utility.yul\":1411:1415   */\n          0x24\n            /* \"#utility.yul\":1408:1409   */\n          0x00\n            /* \"#utility.yul\":1401:1416   */\n          revert\n            /* \"#utility.yul\":1428:1748   */\n        tag_10:\n            /* \"#utility.yul\":1472:1478   */\n          0x00\n            /* \"#utility.yul\":1509:1510   */\n          0x02\n            /* \"#utility.yul\":1503:1507   */\n          dup3\n            /* \"#utility.yul\":1499:1511   */\n          div\n            /* \"#utility.yul\":1489:1511   */\n          swap1\n          pop\n            /* \"#utility.yul\":1556:1557   */\n          0x01\n            /* \"#utility.yul\":1550:1554   */\n          dup3\n            /* \"#utility.yul\":1546:1558   */\n          and\n            /* \"#utility.yul\":1577:1595   */\n          dup1\n            /* \"#utility.yul\":1567:1648   */\n          tag_35\n          jumpi\n            /* \"#utility.yul\":1633:1637   */\n          0x7f\n            /* \"#utility.yul\":1625:1631   */\n          dup3\n            /* \"#utility.yul\":1621:1638   */\n          and\n            /* \"#utility.yul\":1611:1638   */\n          swap2\n          pop\n            /* \"#utility.yul\":1567:1648   */\n        tag_35:\n            /* \"#utility.yul\":1695:1697   */\n          0x20\n            /* \"#utility.yul\":1687:1693   */\n          dup3\n            /* \"#utility.yul\":1684:1698   */\n          lt\n            /* \"#utility.yul\":1664:1682   */\n          dup2\n            /* \"#utility.yul\":1661:1699   */\n          sub\n            /* \"#utility.yul\":1658:1742   */\n          tag_36\n          jumpi\n            /* \"#utility.yul\":1714:1732   */\n          tag_37\n          tag_20\n          jump\t// in\n        tag_37:\n            /* \"#utility.yul\":1658:1742   */\n        tag_36:\n            /* \"#utility.yul\":1479:1748   */\n          pop\n            /* \"#utility.yul\":1428:1748   */\n          swap2\n          swap1\n          pop\n          jump\t// out\n\n        auxdata: 0xa26469706673582212209d7d7858945d006ed8cbac1962ec44bb9add0f4498c06c7bef85e8e11cfcd45c64736f6c634300081a0033\n    }\n}\n",
				"bytecode": {
					"linkReferences": {},
					"object": "608060405234801561000f575f80fd5b50604051610ddf380380610ddf83398181016040528101906100319190610245565b335f806101000a81548173ffffffffffffffffffffffffffffffffffffffff021916908373ffffffffffffffffffffffffffffffffffffffff1602179055505f8160405161007e906100eb565b61008891906102de565b604051809103905ff0801580156100a1573d5f803e3d5ffd5b5090508060015f6101000a81548173ffffffffffffffffffffffffffffffffffffffff021916908373ffffffffffffffffffffffffffffffffffffffff16021790555050506102fe565b6106c08061071f83390190565b5f604051905090565b5f80fd5b5f80fd5b5f80fd5b5f80fd5b5f601f19601f8301169050919050565b7f4e487b71000000000000000000000000000000000000000000000000000000005f52604160045260245ffd5b61015782610111565b810181811067ffffffffffffffff8211171561017657610175610121565b5b80604052505050565b5f6101886100f8565b9050610194828261014e565b919050565b5f67ffffffffffffffff8211156101b3576101b2610121565b5b6101bc82610111565b9050602081019050919050565b8281835e5f83830152505050565b5f6101e96101e484610199565b61017f565b9050828152602081018484840111156102055761020461010d565b5b6102108482856101c9565b509392505050565b5f82601f83011261022c5761022b610109565b5b815161023c8482602086016101d7565b91505092915050565b5f6020828403121561025a57610259610101565b5b5f82015167ffffffffffffffff81111561027757610276610105565b5b61028384828501610218565b91505092915050565b5f81519050919050565b5f82825260208201905092915050565b5f6102b08261028c565b6102ba8185610296565b93506102ca8185602086016101c9565b6102d381610111565b840191505092915050565b5f6020820190508181035f8301526102f681846102a6565b905092915050565b6104148061030b5f395ff3fe608060405234801561000f575f80fd5b5060043610610029575f3560e01c80635b9fdc301461002d575b5f80fd5b61003561004b565b60405161004291906101e0565b60405180910390f35b60605f8054906101000a900473ffffffffffffffffffffffffffffffffffffffff1673ffffffffffffffffffffffffffffffffffffffff163373ffffffffffffffffffffffffffffffffffffffff16146100da576040517f08c379a00000000000000000000000000000000000000000000000000000000081526004016100d19061024a565b60405180910390fd5b60015f9054906101000a900473ffffffffffffffffffffffffffffffffffffffff1673ffffffffffffffffffffffffffffffffffffffff16635b9fdc306040518163ffffffff1660e01b81526004015f60405180830381865afa158015610143573d5f803e3d5ffd5b505050506040513d5f823e3d601f19601f8201168201806040525081019061016b9190610397565b905090565b5f81519050919050565b5f82825260208201905092915050565b8281835e5f83830152505050565b5f601f19601f8301169050919050565b5f6101b282610170565b6101bc818561017a565b93506101cc81856020860161018a565b6101d581610198565b840191505092915050565b5f6020820190508181035f8301526101f881846101a8565b905092915050565b7f4d757374206265206f776e6572206f662074686520436f6e74726163740000005f82015250565b5f610234601d8361017a565b915061023f82610200565b602082019050919050565b5f6020820190508181035f83015261026181610228565b9050919050565b5f604051905090565b5f80fd5b5f80fd5b5f80fd5b5f80fd5b7f4e487b71000000000000000000000000000000000000000000000000000000005f52604160045260245ffd5b6102b782610198565b810181811067ffffffffffffffff821117156102d6576102d5610281565b5b80604052505050565b5f6102e8610268565b90506102f482826102ae565b919050565b5f67ffffffffffffffff82111561031357610312610281565b5b61031c82610198565b9050602081019050919050565b5f61033b610336846102f9565b6102df565b9050828152602081018484840111156103575761035661027d565b5b61036284828561018a565b509392505050565b5f82601f83011261037e5761037d610279565b5b815161038e848260208601610329565b91505092915050565b5f602082840312156103ac576103ab610271565b5b5f82015167ffffffffffffffff8111156103c9576103c8610275565b5b6103d58482850161036a565b9150509291505056fea26469706673582212202d275b871f52490201c63de25cf41e6fb13a9038adead292c2df1b8826b61b2b64736f6c634300081a0033608060405234801561000f575f80fd5b506040516106c03803806106c083398181016040528101906100319190610193565b805f908161003f91906103e7565b50506104b6565b5f604051905090565b5f80fd5b5f80fd5b5f80fd5b5f80fd5b5f601f19601f8301169050919050565b7f4e487b71000000000000000000000000000000000000000000000000000000005f52604160045260245ffd5b6100a58261005f565b810181811067ffffffffffffffff821117156100c4576100c361006f565b5b80604052505050565b5f6100d6610046565b90506100e2828261009c565b919050565b5f67ffffffffffffffff8211156101015761010061006f565b5b61010a8261005f565b9050602081019050919050565b8281835e5f83830152505050565b5f610137610132846100e7565b6100cd565b9050828152602081018484840111156101535761015261005b565b5b61015e848285610117565b509392505050565b5f82601f83011261017a57610179610057565b5b815161018a848260208601610125565b91505092915050565b5f602082840312156101a8576101a761004f565b5b5f82015167ffffffffffffffff8111156101c5576101c4610053565b5b6101d184828501610166565b91505092915050565b5f81519050919050565b7f4e487b71000000000000000000000000000000000000000000000000000000005f52602260045260245ffd5b5f600282049050600182168061022857607f821691505b60208210810361023b5761023a6101e4565b5b50919050565b5f819050815f5260205f209050919050565b5f6020601f8301049050919050565b5f82821b905092915050565b5f6008830261029d7fffffffffffffffffffffffffffffffffffffffffffffffffffffffffffffffff82610262565b6102a78683610262565b95508019841693508086168417925050509392505050565b5f819050919050565b5f819050919050565b5f6102eb6102e66102e1846102bf565b6102c8565b6102bf565b9050919050565b5f819050919050565b610304836102d1565b610318610310826102f2565b84845461026e565b825550505050565b5f90565b61032c610320565b6103378184846102fb565b505050565b5b8181101561035a5761034f5f82610324565b60018101905061033d565b5050565b601f82111561039f5761037081610241565b61037984610253565b81016020851015610388578190505b61039c61039485610253565b83018261033c565b50505b505050565b5f82821c905092915050565b5f6103bf5f19846008026103a4565b1980831691505092915050565b5f6103d783836103b0565b9150826002028217905092915050565b6103f0826101da565b67ffffffffffffffff8111156104095761040861006f565b5b6104138254610211565b61041e82828561035e565b5f60209050601f83116001811461044f575f841561043d578287015190505b61044785826103cc565b8655506104ae565b601f19841661045d86610241565b5f5b828110156104845784890151825560018201915060208501945060208101905061045f565b868310156104a1578489015161049d601f8916826103b0565b8355505b6001600288020188555050505b505050505050565b6101fd806104c35f395ff3fe608060405234801561000f575f80fd5b5060043610610029575f3560e01c80635b9fdc301461002d575b5f80fd5b61003561004b565b604051610042919061014a565b60405180910390f35b60605f805461005990610197565b80601f016020809104026020016040519081016040528092919081815260200182805461008590610197565b80156100d05780601f106100a7576101008083540402835291602001916100d0565b820191905f5260205f20905b8154815290600101906020018083116100b357829003601f168201915b5050505050905090565b5f81519050919050565b5f82825260208201905092915050565b8281835e5f83830152505050565b5f601f19601f8301169050919050565b5f61011c826100da565b61012681856100e4565b93506101368185602086016100f4565b61013f81610102565b840191505092915050565b5f6020820190508181035f8301526101628184610112565b905092915050565b7f4e487b71000000000000000000000000000000000000000000000000000000005f52602260045260245ffd5b5f60028204905060018216806101ae57607f821691505b6020821081036101c1576101c061016a565b5b5091905056fea26469706673582212209d7d7858945d006ed8cbac1962ec44bb9add0f4498c06c7bef85e8e11cfcd45c64736f6c634300081a0033",
					"opcodes": "PUSH1 0x80 PUSH1 0x40 MSTORE CALLVALUE DUP1 ISZERO PUSH2 0xF JUMPI PUSH0 DUP1 REVERT JUMPDEST POP PUSH1 0x40 MLOAD PUSH2 0xDDF CODESIZE SUB DUP1 PUSH2 0xDDF DUP4 CODECOPY DUP2 DUP2 ADD PUSH1 0x40 MSTORE DUP2 ADD SWAP1 PUSH2 0x31 SWAP2 SWAP1 PUSH2 0x245 JUMP JUMPDEST CALLER PUSH0 DUP1 PUSH2 0x100 EXP DUP2 SLOAD DUP2 PUSH20 0xFFFFFFFFFFFFFFFFFFFFFFFFFFFFFFFFFFFFFFFF MUL NOT AND SWAP1 DUP4 PUSH20 0xFFFFFFFFFFFFFFFFFFFFFFFFFFFFFFFFFFFFFFFF AND MUL OR SWAP1 SSTORE POP PUSH0 DUP2 PUSH1 0x40 MLOAD PUSH2 0x7E SWAP1 PUSH2 0xEB JUMP JUMPDEST PUSH2 0x88 SWAP2 SWAP1 PUSH2 0x2DE JUMP JUMPDEST PUSH1 0x40 MLOAD DUP1 SWAP2 SUB SWAP1 PUSH0 CREATE DUP1 ISZERO DUP1 ISZERO PUSH2 0xA1 JUMPI RETURNDATASIZE PUSH0 DUP1 RETURNDATACOPY RETURNDATASIZE PUSH0 REVERT JUMPDEST POP SWAP1 POP DUP1 PUSH1 0x1 PUSH0 PUSH2 0x100 EXP DUP2 SLOAD DUP2 PUSH20 0xFFFFFFFFFFFFFFFFFFFFFFFFFFFFFFFFFFFFFFFF MUL NOT AND SWAP1 DUP4 PUSH20 0xFFFFFFFFFFFFFFFFFFFFFFFFFFFFFFFFFFFFFFFF AND MUL OR SWAP1 SSTORE POP POP POP PUSH2 0x2FE JUMP JUMPDEST PUSH2 0x6C0 DUP1 PUSH2 0x71F DUP4 CODECOPY ADD SWAP1 JUMP JUMPDEST PUSH0 PUSH1 0x40 MLOAD SWAP1 POP SWAP1 JUMP JUMPDEST PUSH0 DUP1 REVERT JUMPDEST PUSH0 DUP1 REVERT JUMPDEST PUSH0 DUP1 REVERT JUMPDEST PUSH0 DUP1 REVERT JUMPDEST PUSH0 PUSH1 0x1F NOT PUSH1 0x1F DUP4 ADD AND SWAP1 POP SWAP2 SWAP1 POP JUMP JUMPDEST PUSH32 0x4E487B7100000000000000000000000000000000000000000000000000000000 PUSH0 MSTORE PUSH1 0x41 PUSH1 0x4 MSTORE PUSH1 0x24 PUSH0 REVERT JUMPDEST PUSH2 0x157 DUP3 PUSH2 0x111 JUMP JUMPDEST DUP2 ADD DUP2 DUP2 LT PUSH8 0xFFFFFFFFFFFFFFFF DUP3 GT OR ISZERO PUSH2 0x176 JUMPI PUSH2 0x175 PUSH2 0x121 JUMP JUMPDEST JUMPDEST DUP1 PUSH1 0x40 MSTORE POP POP POP JUMP JUMPDEST PUSH0 PUSH2 0x188 PUSH2 0xF8 JUMP JUMPDEST SWAP1 POP PUSH2 0x194 DUP3 DUP3 PUSH2 0x14E JUMP JUMPDEST SWAP2 SWAP1 POP JUMP JUMPDEST PUSH0 PUSH8 0xFFFFFFFFFFFFFFFF DUP3 GT ISZERO PUSH2 0x1B3 JUMPI PUSH2 0x1B2 PUSH2 0x121 JUMP JUMPDEST JUMPDEST PUSH2 0x1BC DUP3 PUSH2 0x111 JUMP JUMPDEST SWAP1 POP PUSH1 0x20 DUP2 ADD SWAP1 POP SWAP2 SWAP1 POP JUMP JUMPDEST DUP3 DUP2 DUP4 MCOPY PUSH0 DUP4 DUP4 ADD MSTORE POP POP POP JUMP JUMPDEST PUSH0 PUSH2 0x1E9 PUSH2 0x1E4 DUP5 PUSH2 0x199 JUMP JUMPDEST PUSH2 0x17F JUMP JUMPDEST SWAP1 POP DUP3 DUP2 MSTORE PUSH1 0x20 DUP2 ADD DUP5 DUP5 DUP5 ADD GT ISZERO PUSH2 0x205 JUMPI PUSH2 0x204 PUSH2 0x10D JUMP JUMPDEST JUMPDEST PUSH2 0x210 DUP5 DUP3 DUP6 PUSH2 0x1C9 JUMP JUMPDEST POP SWAP4 SWAP3 POP POP POP JUMP JUMPDEST PUSH0 DUP3 PUSH1 0x1F DUP4 ADD SLT PUSH2 0x22C JUMPI PUSH2 0x22B PUSH2 0x109 JUMP JUMPDEST JUMPDEST DUP2 MLOAD PUSH2 0x23C DUP5 DUP3 PUSH1 0x20 DUP7 ADD PUSH2 0x1D7 JUMP JUMPDEST SWAP2 POP POP SWAP3 SWAP2 POP POP JUMP JUMPDEST PUSH0 PUSH1 0x20 DUP3 DUP5 SUB SLT ISZERO PUSH2 0x25A JUMPI PUSH2 0x259 PUSH2 0x101 JUMP JUMPDEST JUMPDEST PUSH0 DUP3 ADD MLOAD PUSH8 0xFFFFFFFFFFFFFFFF DUP2 GT ISZERO PUSH2 0x277 JUMPI PUSH2 0x276 PUSH2 0x105 JUMP JUMPDEST JUMPDEST PUSH2 0x283 DUP5 DUP3 DUP6 ADD PUSH2 0x218 JUMP JUMPDEST SWAP2 POP POP SWAP3 SWAP2 POP POP JUMP JUMPDEST PUSH0 DUP2 MLOAD SWAP1 POP SWAP2 SWAP1 POP JUMP JUMPDEST PUSH0 DUP3 DUP3 MSTORE PUSH1 0x20 DUP3 ADD SWAP1 POP SWAP3 SWAP2 POP POP JUMP JUMPDEST PUSH0 PUSH2 0x2B0 DUP3 PUSH2 0x28C JUMP JUMPDEST PUSH2 0x2BA DUP2 DUP6 PUSH2 0x296 JUMP JUMPDEST SWAP4 POP PUSH2 0x2CA DUP2 DUP6 PUSH1 0x20 DUP7 ADD PUSH2 0x1C9 JUMP JUMPDEST PUSH2 0x2D3 DUP2 PUSH2 0x111 JUMP JUMPDEST DUP5 ADD SWAP2 POP POP SWAP3 SWAP2 POP POP JUMP JUMPDEST PUSH0 PUSH1 0x20 DUP3 ADD SWAP1 POP DUP2 DUP2 SUB PUSH0 DUP4 ADD MSTORE PUSH2 0x2F6 DUP2 DUP5 PUSH2 0x2A6 JUMP JUMPDEST SWAP1 POP SWAP3 SWAP2 POP POP JUMP JUMPDEST PUSH2 0x414 DUP1 PUSH2 0x30B PUSH0 CODECOPY PUSH0 RETURN INVALID PUSH1 0x80 PUSH1 0x40 MSTORE CALLVALUE DUP1 ISZERO PUSH2 0xF JUMPI PUSH0 DUP1 REVERT JUMPDEST POP PUSH1 0x4 CALLDATASIZE LT PUSH2 0x29 JUMPI PUSH0 CALLDATALOAD PUSH1 0xE0 SHR DUP1 PUSH4 0x5B9FDC30 EQ PUSH2 0x2D JUMPI JUMPDEST PUSH0 DUP1 REVERT JUMPDEST PUSH2 0x35 PUSH2 0x4B JUMP JUMPDEST PUSH1 0x40 MLOAD PUSH2 0x42 SWAP2 SWAP1 PUSH2 0x1E0 JUMP JUMPDEST PUSH1 0x40 MLOAD DUP1 SWAP2 SUB SWAP1 RETURN JUMPDEST PUSH1 0x60 PUSH0 DUP1 SLOAD SWAP1 PUSH2 0x100 EXP SWAP1 DIV PUSH20 0xFFFFFFFFFFFFFFFFFFFFFFFFFFFFFFFFFFFFFFFF AND PUSH20 0xFFFFFFFFFFFFFFFFFFFFFFFFFFFFFFFFFFFFFFFF AND CALLER PUSH20 0xFFFFFFFFFFFFFFFFFFFFFFFFFFFFFFFFFFFFFFFF AND EQ PUSH2 0xDA JUMPI PUSH1 0x40 MLOAD PUSH32 0x8C379A000000000000000000000000000000000000000000000000000000000 DUP2 MSTORE PUSH1 0x4 ADD PUSH2 0xD1 SWAP1 PUSH2 0x24A JUMP JUMPDEST PUSH1 0x40 MLOAD DUP1 SWAP2 SUB SWAP1 REVERT JUMPDEST PUSH1 0x1 PUSH0 SWAP1 SLOAD SWAP1 PUSH2 0x100 EXP SWAP1 DIV PUSH20 0xFFFFFFFFFFFFFFFFFFFFFFFFFFFFFFFFFFFFFFFF AND PUSH20 0xFFFFFFFFFFFFFFFFFFFFFFFFFFFFFFFFFFFFFFFF AND PUSH4 0x5B9FDC30 PUSH1 0x40 MLOAD DUP2 PUSH4 0xFFFFFFFF AND PUSH1 0xE0 SHL DUP2 MSTORE PUSH1 0x4 ADD PUSH0 PUSH1 0x40 MLOAD DUP1 DUP4 SUB DUP2 DUP7 GAS STATICCALL ISZERO DUP1 ISZERO PUSH2 0x143 JUMPI RETURNDATASIZE PUSH0 DUP1 RETURNDATACOPY RETURNDATASIZE PUSH0 REVERT JUMPDEST POP POP POP POP PUSH1 0x40 MLOAD RETURNDATASIZE PUSH0 DUP3 RETURNDATACOPY RETURNDATASIZE PUSH1 0x1F NOT PUSH1 0x1F DUP3 ADD AND DUP3 ADD DUP1 PUSH1 0x40 MSTORE POP DUP2 ADD SWAP1 PUSH2 0x16B SWAP2 SWAP1 PUSH2 0x397 JUMP JUMPDEST SWAP1 POP SWAP1 JUMP JUMPDEST PUSH0 DUP2 MLOAD SWAP1 POP SWAP2 SWAP1 POP JUMP JUMPDEST PUSH0 DUP3 DUP3 MSTORE PUSH1 0x20 DUP3 ADD SWAP1 POP SWAP3 SWAP2 POP POP JUMP JUMPDEST DUP3 DUP2 DUP4 MCOPY PUSH0 DUP4 DUP4 ADD MSTORE POP POP POP JUMP JUMPDEST PUSH0 PUSH1 0x1F NOT PUSH1 0x1F DUP4 ADD AND SWAP1 POP SWAP2 SWAP1 POP JUMP JUMPDEST PUSH0 PUSH2 0x1B2 DUP3 PUSH2 0x170 JUMP JUMPDEST PUSH2 0x1BC DUP2 DUP6 PUSH2 0x17A JUMP JUMPDEST SWAP4 POP PUSH2 0x1CC DUP2 DUP6 PUSH1 0x20 DUP7 ADD PUSH2 0x18A JUMP JUMPDEST PUSH2 0x1D5 DUP2 PUSH2 0x198 JUMP JUMPDEST DUP5 ADD SWAP2 POP POP SWAP3 SWAP2 POP POP JUMP JUMPDEST PUSH0 PUSH1 0x20 DUP3 ADD SWAP1 POP DUP2 DUP2 SUB PUSH0 DUP4 ADD MSTORE PUSH2 0x1F8 DUP2 DUP5 PUSH2 0x1A8 JUMP JUMPDEST SWAP1 POP SWAP3 SWAP2 POP POP JUMP JUMPDEST PUSH32 0x4D757374206265206F776E6572206F662074686520436F6E7472616374000000 PUSH0 DUP3 ADD MSTORE POP JUMP JUMPDEST PUSH0 PUSH2 0x234 PUSH1 0x1D DUP4 PUSH2 0x17A JUMP JUMPDEST SWAP2 POP PUSH2 0x23F DUP3 PUSH2 0x200 JUMP JUMPDEST PUSH1 0x20 DUP3 ADD SWAP1 POP SWAP2 SWAP1 POP JUMP JUMPDEST PUSH0 PUSH1 0x20 DUP3 ADD SWAP1 POP DUP2 DUP2 SUB PUSH0 DUP4 ADD MSTORE PUSH2 0x261 DUP2 PUSH2 0x228 JUMP JUMPDEST SWAP1 POP SWAP2 SWAP1 POP JUMP JUMPDEST PUSH0 PUSH1 0x40 MLOAD SWAP1 POP SWAP1 JUMP JUMPDEST PUSH0 DUP1 REVERT JUMPDEST PUSH0 DUP1 REVERT JUMPDEST PUSH0 DUP1 REVERT JUMPDEST PUSH0 DUP1 REVERT JUMPDEST PUSH32 0x4E487B7100000000000000000000000000000000000000000000000000000000 PUSH0 MSTORE PUSH1 0x41 PUSH1 0x4 MSTORE PUSH1 0x24 PUSH0 REVERT JUMPDEST PUSH2 0x2B7 DUP3 PUSH2 0x198 JUMP JUMPDEST DUP2 ADD DUP2 DUP2 LT PUSH8 0xFFFFFFFFFFFFFFFF DUP3 GT OR ISZERO PUSH2 0x2D6 JUMPI PUSH2 0x2D5 PUSH2 0x281 JUMP JUMPDEST JUMPDEST DUP1 PUSH1 0x40 MSTORE POP POP POP JUMP JUMPDEST PUSH0 PUSH2 0x2E8 PUSH2 0x268 JUMP JUMPDEST SWAP1 POP PUSH2 0x2F4 DUP3 DUP3 PUSH2 0x2AE JUMP JUMPDEST SWAP2 SWAP1 POP JUMP JUMPDEST PUSH0 PUSH8 0xFFFFFFFFFFFFFFFF DUP3 GT ISZERO PUSH2 0x313 JUMPI PUSH2 0x312 PUSH2 0x281 JUMP JUMPDEST JUMPDEST PUSH2 0x31C DUP3 PUSH2 0x198 JUMP JUMPDEST SWAP1 POP PUSH1 0x20 DUP2 ADD SWAP1 POP SWAP2 SWAP1 POP JUMP JUMPDEST PUSH0 PUSH2 0x33B PUSH2 0x336 DUP5 PUSH2 0x2F9 JUMP JUMPDEST PUSH2 0x2DF JUMP JUMPDEST SWAP1 POP DUP3 DUP2 MSTORE PUSH1 0x20 DUP2 ADD DUP5 DUP5 DUP5 ADD GT ISZERO PUSH2 0x357 JUMPI PUSH2 0x356 PUSH2 0x27D JUMP JUMPDEST JUMPDEST PUSH2 0x362 DUP5 DUP3 DUP6 PUSH2 0x18A JUMP JUMPDEST POP SWAP4 SWAP3 POP POP POP JUMP JUMPDEST PUSH0 DUP3 PUSH1 0x1F DUP4 ADD SLT PUSH2 0x37E JUMPI PUSH2 0x37D PUSH2 0x279 JUMP JUMPDEST JUMPDEST DUP2 MLOAD PUSH2 0x38E DUP5 DUP3 PUSH1 0x20 DUP7 ADD PUSH2 0x329 JUMP JUMPDEST SWAP2 POP POP SWAP3 SWAP2 POP POP JUMP JUMPDEST PUSH0 PUSH1 0x20 DUP3 DUP5 SUB SLT ISZERO PUSH2 0x3AC JUMPI PUSH2 0x3AB PUSH2 0x271 JUMP JUMPDEST JUMPDEST PUSH0 DUP3 ADD MLOAD PUSH8 0xFFFFFFFFFFFFFFFF DUP2 GT ISZERO PUSH2 0x3C9 JUMPI PUSH2 0x3C8 PUSH2 0x275 JUMP JUMPDEST JUMPDEST PUSH2 0x3D5 DUP5 DUP3 DUP6 ADD PUSH2 0x36A JUMP JUMPDEST SWAP2 POP POP SWAP3 SWAP2 POP POP JUMP INVALID LOG2 PUSH5 0x6970667358 0x22 SLT KECCAK256 0x2D 0x27 JUMPDEST DUP8 0x1F MSTORE BLOBHASH MUL ADD 0xC6 RETURNDATASIZE 0xE2 TLOAD DELEGATECALL 0x1E PUSH16 0xB13A9038ADEAD292C2DF1B8826B61B2B PUSH5 0x736F6C6343 STOP ADDMOD BYTE STOP CALLER PUSH1 0x80 PUSH1 0x40 MSTORE CALLVALUE DUP1 ISZERO PUSH2 0xF JUMPI PUSH0 DUP1 REVERT JUMPDEST POP PUSH1 0x40 MLOAD PUSH2 0x6C0 CODESIZE SUB DUP1 PUSH2 0x6C0 DUP4 CODECOPY DUP2 DUP2 ADD PUSH1 0x40 MSTORE DUP2 ADD SWAP1 PUSH2 0x31 SWAP2 SWAP1 PUSH2 0x193 JUMP JUMPDEST DUP1 PUSH0 SWAP1 DUP2 PUSH2 0x3F SWAP2 SWAP1 PUSH2 0x3E7 JUMP JUMPDEST POP POP PUSH2 0x4B6 JUMP JUMPDEST PUSH0 PUSH1 0x40 MLOAD SWAP1 POP SWAP1 JUMP JUMPDEST PUSH0 DUP1 REVERT JUMPDEST PUSH0 DUP1 REVERT JUMPDEST PUSH0 DUP1 REVERT JUMPDEST PUSH0 DUP1 REVERT JUMPDEST PUSH0 PUSH1 0x1F NOT PUSH1 0x1F DUP4 ADD AND SWAP1 POP SWAP2 SWAP1 POP JUMP JUMPDEST PUSH32 0x4E487B7100000000000000000000000000000000000000000000000000000000 PUSH0 MSTORE PUSH1 0x41 PUSH1 0x4 MSTORE PUSH1 0x24 PUSH0 REVERT JUMPDEST PUSH2 0xA5 DUP3 PUSH2 0x5F JUMP JUMPDEST DUP2 ADD DUP2 DUP2 LT PUSH8 0xFFFFFFFFFFFFFFFF DUP3 GT OR ISZERO PUSH2 0xC4 JUMPI PUSH2 0xC3 PUSH2 0x6F JUMP JUMPDEST JUMPDEST DUP1 PUSH1 0x40 MSTORE POP POP POP JUMP JUMPDEST PUSH0 PUSH2 0xD6 PUSH2 0x46 JUMP JUMPDEST SWAP1 POP PUSH2 0xE2 DUP3 DUP3 PUSH2 0x9C JUMP JUMPDEST SWAP2 SWAP1 POP JUMP JUMPDEST PUSH0 PUSH8 0xFFFFFFFFFFFFFFFF DUP3 GT ISZERO PUSH2 0x101 JUMPI PUSH2 0x100 PUSH2 0x6F JUMP JUMPDEST JUMPDEST PUSH2 0x10A DUP3 PUSH2 0x5F JUMP JUMPDEST SWAP1 POP PUSH1 0x20 DUP2 ADD SWAP1 POP SWAP2 SWAP1 POP JUMP JUMPDEST DUP3 DUP2 DUP4 MCOPY PUSH0 DUP4 DUP4 ADD MSTORE POP POP POP JUMP JUMPDEST PUSH0 PUSH2 0x137 PUSH2 0x132 DUP5 PUSH2 0xE7 JUMP JUMPDEST PUSH2 0xCD JUMP JUMPDEST SWAP1 POP DUP3 DUP2 MSTORE PUSH1 0x20 DUP2 ADD DUP5 DUP5 DUP5 ADD GT ISZERO PUSH2 0x153 JUMPI PUSH2 0x152 PUSH2 0x5B JUMP JUMPDEST JUMPDEST PUSH2 0x15E DUP5 DUP3 DUP6 PUSH2 0x117 JUMP JUMPDEST POP SWAP4 SWAP3 POP POP POP JUMP JUMPDEST PUSH0 DUP3 PUSH1 0x1F DUP4 ADD SLT PUSH2 0x17A JUMPI PUSH2 0x179 PUSH2 0x57 JUMP JUMPDEST JUMPDEST DUP2 MLOAD PUSH2 0x18A DUP5 DUP3 PUSH1 0x20 DUP7 ADD PUSH2 0x125 JUMP JUMPDEST SWAP2 POP POP SWAP3 SWAP2 POP POP JUMP JUMPDEST PUSH0 PUSH1 0x20 DUP3 DUP5 SUB SLT ISZERO PUSH2 0x1A8 JUMPI PUSH2 0x1A7 PUSH2 0x4F JUMP JUMPDEST JUMPDEST PUSH0 DUP3 ADD MLOAD PUSH8 0xFFFFFFFFFFFFFFFF DUP2 GT ISZERO PUSH2 0x1C5 JUMPI PUSH2 0x1C4 PUSH2 0x53 JUMP JUMPDEST JUMPDEST PUSH2 0x1D1 DUP5 DUP3 DUP6 ADD PUSH2 0x166 JUMP JUMPDEST SWAP2 POP POP SWAP3 SWAP2 POP POP JUMP JUMPDEST PUSH0 DUP2 MLOAD SWAP1 POP SWAP2 SWAP1 POP JUMP JUMPDEST PUSH32 0x4E487B7100000000000000000000000000000000000000000000000000000000 PUSH0 MSTORE PUSH1 0x22 PUSH1 0x4 MSTORE PUSH1 0x24 PUSH0 REVERT JUMPDEST PUSH0 PUSH1 0x2 DUP3 DIV SWAP1 POP PUSH1 0x1 DUP3 AND DUP1 PUSH2 0x228 JUMPI PUSH1 0x7F DUP3 AND SWAP2 POP JUMPDEST PUSH1 0x20 DUP3 LT DUP2 SUB PUSH2 0x23B JUMPI PUSH2 0x23A PUSH2 0x1E4 JUMP JUMPDEST JUMPDEST POP SWAP2 SWAP1 POP JUMP JUMPDEST PUSH0 DUP2 SWAP1 POP DUP2 PUSH0 MSTORE PUSH1 0x20 PUSH0 KECCAK256 SWAP1 POP SWAP2 SWAP1 POP JUMP JUMPDEST PUSH0 PUSH1 0x20 PUSH1 0x1F DUP4 ADD DIV SWAP1 POP SWAP2 SWAP1 POP JUMP JUMPDEST PUSH0 DUP3 DUP3 SHL SWAP1 POP SWAP3 SWAP2 POP POP JUMP JUMPDEST PUSH0 PUSH1 0x8 DUP4 MUL PUSH2 0x29D PUSH32 0xFFFFFFFFFFFFFFFFFFFFFFFFFFFFFFFFFFFFFFFFFFFFFFFFFFFFFFFFFFFFFFFF DUP3 PUSH2 0x262 JUMP JUMPDEST PUSH2 0x2A7 DUP7 DUP4 PUSH2 0x262 JUMP JUMPDEST SWAP6 POP DUP1 NOT DUP5 AND SWAP4 POP DUP1 DUP7 AND DUP5 OR SWAP3 POP POP POP SWAP4 SWAP3 POP POP POP JUMP JUMPDEST PUSH0 DUP2 SWAP1 POP SWAP2 SWAP1 POP JUMP JUMPDEST PUSH0 DUP2 SWAP1 POP SWAP2 SWAP1 POP JUMP JUMPDEST PUSH0 PUSH2 0x2EB PUSH2 0x2E6 PUSH2 0x2E1 DUP5 PUSH2 0x2BF JUMP JUMPDEST PUSH2 0x2C8 JUMP JUMPDEST PUSH2 0x2BF JUMP JUMPDEST SWAP1 POP SWAP2 SWAP1 POP JUMP JUMPDEST PUSH0 DUP2 SWAP1 POP SWAP2 SWAP1 POP JUMP JUMPDEST PUSH2 0x304 DUP4 PUSH2 0x2D1 JUMP JUMPDEST PUSH2 0x318 PUSH2 0x310 DUP3 PUSH2 0x2F2 JUMP JUMPDEST DUP5 DUP5 SLOAD PUSH2 0x26E JUMP JUMPDEST DUP3 SSTORE POP POP POP POP JUMP JUMPDEST PUSH0 SWAP1 JUMP JUMPDEST PUSH2 0x32C PUSH2 0x320 JUMP JUMPDEST PUSH2 0x337 DUP2 DUP5 DUP5 PUSH2 0x2FB JUMP JUMPDEST POP POP POP JUMP JUMPDEST JUMPDEST DUP2 DUP2 LT ISZERO PUSH2 0x35A JUMPI PUSH2 0x34F PUSH0 DUP3 PUSH2 0x324 JUMP JUMPDEST PUSH1 0x1 DUP2 ADD SWAP1 POP PUSH2 0x33D JUMP JUMPDEST POP POP JUMP JUMPDEST PUSH1 0x1F DUP3 GT ISZERO PUSH2 0x39F JUMPI PUSH2 0x370 DUP2 PUSH2 0x241 JUMP JUMPDEST PUSH2 0x379 DUP5 PUSH2 0x253 JUMP JUMPDEST DUP2 ADD PUSH1 0x20 DUP6 LT ISZERO PUSH2 0x388 JUMPI DUP2 SWAP1 POP JUMPDEST PUSH2 0x39C PUSH2 0x394 DUP6 PUSH2 0x253 JUMP JUMPDEST DUP4 ADD DUP3 PUSH2 0x33C JUMP JUMPDEST POP POP JUMPDEST POP POP POP JUMP JUMPDEST PUSH0 DUP3 DUP3 SHR SWAP1 POP SWAP3 SWAP2 POP POP JUMP JUMPDEST PUSH0 PUSH2 0x3BF PUSH0 NOT DUP5 PUSH1 0x8 MUL PUSH2 0x3A4 JUMP JUMPDEST NOT DUP1 DUP4 AND SWAP2 POP POP SWAP3 SWAP2 POP POP JUMP JUMPDEST PUSH0 PUSH2 0x3D7 DUP4 DUP4 PUSH2 0x3B0 JUMP JUMPDEST SWAP2 POP DUP3 PUSH1 0x2 MUL DUP3 OR SWAP1 POP SWAP3 SWAP2 POP POP JUMP JUMPDEST PUSH2 0x3F0 DUP3 PUSH2 0x1DA JUMP JUMPDEST PUSH8 0xFFFFFFFFFFFFFFFF DUP2 GT ISZERO PUSH2 0x409 JUMPI PUSH2 0x408 PUSH2 0x6F JUMP JUMPDEST JUMPDEST PUSH2 0x413 DUP3 SLOAD PUSH2 0x211 JUMP JUMPDEST PUSH2 0x41E DUP3 DUP3 DUP6 PUSH2 0x35E JUMP JUMPDEST PUSH0 PUSH1 0x20 SWAP1 POP PUSH1 0x1F DUP4 GT PUSH1 0x1 DUP2 EQ PUSH2 0x44F JUMPI PUSH0 DUP5 ISZERO PUSH2 0x43D JUMPI DUP3 DUP8 ADD MLOAD SWAP1 POP JUMPDEST PUSH2 0x447 DUP6 DUP3 PUSH2 0x3CC JUMP JUMPDEST DUP7 SSTORE POP PUSH2 0x4AE JUMP JUMPDEST PUSH1 0x1F NOT DUP5 AND PUSH2 0x45D DUP7 PUSH2 0x241 JUMP JUMPDEST PUSH0 JUMPDEST DUP3 DUP2 LT ISZERO PUSH2 0x484 JUMPI DUP5 DUP10 ADD MLOAD DUP3 SSTORE PUSH1 0x1 DUP3 ADD SWAP2 POP PUSH1 0x20 DUP6 ADD SWAP5 POP PUSH1 0x20 DUP2 ADD SWAP1 POP PUSH2 0x45F JUMP JUMPDEST DUP7 DUP4 LT ISZERO PUSH2 0x4A1 JUMPI DUP5 DUP10 ADD MLOAD PUSH2 0x49D PUSH1 0x1F DUP10 AND DUP3 PUSH2 0x3B0 JUMP JUMPDEST DUP4 SSTORE POP JUMPDEST PUSH1 0x1 PUSH1 0x2 DUP9 MUL ADD DUP9 SSTORE POP POP POP JUMPDEST POP POP POP POP POP POP JUMP JUMPDEST PUSH2 0x1FD DUP1 PUSH2 0x4C3 PUSH0 CODECOPY PUSH0 RETURN INVALID PUSH1 0x80 PUSH1 0x40 MSTORE CALLVALUE DUP1 ISZERO PUSH2 0xF JUMPI PUSH0 DUP1 REVERT JUMPDEST POP PUSH1 0x4 CALLDATASIZE LT PUSH2 0x29 JUMPI PUSH0 CALLDATALOAD PUSH1 0xE0 SHR DUP1 PUSH4 0x5B9FDC30 EQ PUSH2 0x2D JUMPI JUMPDEST PUSH0 DUP1 REVERT JUMPDEST PUSH2 0x35 PUSH2 0x4B JUMP JUMPDEST PUSH1 0x40 MLOAD PUSH2 0x42 SWAP2 SWAP1 PUSH2 0x14A JUMP JUMPDEST PUSH1 0x40 MLOAD DUP1 SWAP2 SUB SWAP1 RETURN JUMPDEST PUSH1 0x60 PUSH0 DUP1 SLOAD PUSH2 0x59 SWAP1 PUSH2 0x197 JUMP JUMPDEST DUP1 PUSH1 0x1F ADD PUSH1 0x20 DUP1 SWAP2 DIV MUL PUSH1 0x20 ADD PUSH1 0x40 MLOAD SWAP1 DUP2 ADD PUSH1 0x40 MSTORE DUP1 SWAP3 SWAP2 SWAP1 DUP2 DUP2 MSTORE PUSH1 0x20 ADD DUP3 DUP1 SLOAD PUSH2 0x85 SWAP1 PUSH2 0x197 JUMP JUMPDEST DUP1 ISZERO PUSH2 0xD0 JUMPI DUP1 PUSH1 0x1F LT PUSH2 0xA7 JUMPI PUSH2 0x100 DUP1 DUP4 SLOAD DIV MUL DUP4 MSTORE SWAP2 PUSH1 0x20 ADD SWAP2 PUSH2 0xD0 JUMP JUMPDEST DUP3 ADD SWAP2 SWAP1 PUSH0 MSTORE PUSH1 0x20 PUSH0 KECCAK256 SWAP1 JUMPDEST DUP2 SLOAD DUP2 MSTORE SWAP1 PUSH1 0x1 ADD SWAP1 PUSH1 0x20 ADD DUP1 DUP4 GT PUSH2 0xB3 JUMPI DUP3 SWAP1 SUB PUSH1 0x1F AND DUP3 ADD SWAP2 JUMPDEST POP POP POP POP POP SWAP1 POP SWAP1 JUMP JUMPDEST PUSH0 DUP2 MLOAD SWAP1 POP SWAP2 SWAP1 POP JUMP JUMPDEST PUSH0 DUP3 DUP3 MSTORE PUSH1 0x20 DUP3 ADD SWAP1 POP SWAP3 SWAP2 POP POP JUMP JUMPDEST DUP3 DUP2 DUP4 MCOPY PUSH0 DUP4 DUP4 ADD MSTORE POP POP POP JUMP JUMPDEST PUSH0 PUSH1 0x1F NOT PUSH1 0x1F DUP4 ADD AND SWAP1 POP SWAP2 SWAP1 POP JUMP JUMPDEST PUSH0 PUSH2 0x11C DUP3 PUSH2 0xDA JUMP JUMPDEST PUSH2 0x126 DUP2 DUP6 PUSH2 0xE4 JUMP JUMPDEST SWAP4 POP PUSH2 0x136 DUP2 DUP6 PUSH1 0x20 DUP7 ADD PUSH2 0xF4 JUMP JUMPDEST PUSH2 0x13F DUP2 PUSH2 0x102 JUMP JUMPDEST DUP5 ADD SWAP2 POP POP SWAP3 SWAP2 POP POP JUMP JUMPDEST PUSH0 PUSH1 0x20 DUP3 ADD SWAP1 POP DUP2 DUP2 SUB PUSH0 DUP4 ADD MSTORE PUSH2 0x162 DUP2 DUP5 PUSH2 0x112 JUMP JUMPDEST SWAP1 POP SWAP3 SWAP2 POP POP JUMP JUMPDEST PUSH32 0x4E487B7100000000000000000000000000000000000000000000000000000000 PUSH0 MSTORE PUSH1 0x22 PUSH1 0x4 MSTORE PUSH1 0x24 PUSH0 REVERT JUMPDEST PUSH0 PUSH1 0x2 DUP3 DIV SWAP1 POP PUSH1 0x1 DUP3 AND DUP1 PUSH2 0x1AE JUMPI PUSH1 0x7F DUP3 AND SWAP2 POP JUMPDEST PUSH1 0x20 DUP3 LT DUP2 SUB PUSH2 0x1C1 JUMPI PUSH2 0x1C0 PUSH2 0x16A JUMP JUMPDEST JUMPDEST POP SWAP2 SWAP1 POP JUMP INVALID LOG2 PUSH5 0x6970667358 0x22 SLT KECCAK256 SWAP14 PUSH30 0x7858945D006ED8CBAC1962EC44BB9ADD0F4498C06C7BEF85E8E11CFCD45C PUSH5 0x736F6C6343 STOP ADDMOD BYTE STOP CALLER "
				},
				"gasEstimates": {
					"creation": {
						"codeDepositCost": "208800",
						"executionCost": "infinite",
						"totalCost": "infinite"
					},
					"external": {
						"getSecret()": "infinite"
					}
				},
				"methodIdentifiers": {
					"getSecret()": "5b9fdc30"
				}
			},
			"storageLayout": {
				"storage": [
					{
						"astId": 3,
						"contract": "code/contracts/NewContract.sol:NewContract",
						"label": "owner",
						"offset": 0,
						"slot": "0",
						"type": "t_address"
					},
					{
						"astId": 50,
						"contract": "code/contracts/NewContract.sol:NewContract",
						"label": "secretVault",
						"offset": 0,
						"slot": "1",
						"type": "t_address"
					}
				],
				"types": {
					"t_address": {
						"encoding": "inplace",
						"label": "address",
						"numberOfBytes": "20"
					}
				}
			},
			"userdoc": {
				"kind": "user",
				"methods": {},
				"version": 1
			}
		}
	}
}